:020000040000FA
:10000000A0018A150A1200280B1F1128FD00030EFB
:100010008301FC008C10FB0A7C0E8300FD0E7D0E1C
:1000200009008A15A2218A11C02A82074534693441
:100030006634663465346C34203431342E343134D3
:1000400030342034313431342F343234303430349D
:10005000343400344B080339031D322883168614C8
:10006000831235288316861583124B080339031D26
:100070004128861849288316861183128611CC27B9
:10008000682B861949288316861083128610DB2771
:10009000D12BF91E67280C1E67288316861086113F
:1000A00083128610861138083902031D5928F91267
:1000B0002A288317380A8400503004020318840168
:1000C0000408B80090308407000899002A288C1E84
:1000D0007E28831686108611831286108611981C3E
:1000E0007428181218162A28181D78281A082A2881
:1000F0001A08F300FA1FE6284F272A288C1C3528F7
:100100008316861086118312861086118C10CB0AF6
:10011000C8304B02031D9E28CB018A15B023D82678
:1001200091278A110130A900791F9B287913C423D4
:10013000F03081279E28F91F9E28B7278A15912223
:100140008A114B182A283E1FA8288A15E3248A11F1
:10015000781F2A28F919CF287919B628F91C2A28D6
:10016000CE0BB6280A30CE00CF0A14250509F400BC
:10017000740C1F39F40026020319C2287408A60063
:10018000FE30CB2807091F39F400270203192A285B
:100190007408A700FF30C000E727ED24832ACC0BAA
:1001A0002A284A08CC00E7278A15F2208A11F40190
:1001B000261AF414271A741474088127260EF039AD
:1001C000F40027080F3974048127832AF817F911DE
:1001D0007308033C031D0129F63081270330812772
:1001E00049088127220881270301871A01308127C6
:1001F000A830E3278127A930E32781272A08812710
:100200002A287308043C031D0D29A20173271A3CF8
:10021000031C8A2A7308A83E2C297308063C031D78
:100220001A2907309F277327073C031C8A2A730863
:10023000903E2C297308053C031D432907309F2756
:100240007327730903192B2973088F3C031C8A2A0F
:100250007308003E2C29C230F2007327031783165F
:100260008C183029831272088D0073088C00831655
:100270008C130C1555308D00AA308D008C140C1188
:10028000831203132A287308073C031D4A29732786
:10029000A8002A287308083C031D51297910F81179
:1002A000CD2A7308093C031D61297327E6007327D3
:1002B000E7007327E8007327E900D5247910F815C3
:1002C000CD2A73080A3C031D6F297327D124EE0041
:1002D0007327D124EF00EC01ED017914CD2A7308C6
:1002E0000B3C0319892A73080C3C031D7E297327D4
:1002F000D124DC007327D124DD00992973080D3C3B
:10030000031D8C29F81D2A28F9192A28F730C00066
:100310008613D32586172A2873080E3C031D9E29B1
:1003200073277327E2007327E3007327E400732722
:10033000E5008A15272434248A112A2873080F3CE3
:10034000031DA42978162A287308103C031DAA2926
:1003500078122A287308113C031DAF292A28730834
:10036000123C031DB529F8122A287308133C031DFB
:10037000BB29F8132A287308143C031DC329F9105C
:10038000791578172A287308153C031DCB29F91015
:10039000791178172A287308163C031DDF29781F66
:1003A0002A28F9182A28F9192A280509A600260C4E
:1003B0001F39A60007091F39A700FD30CB28730895
:1003C000173C031DEA297327D124CA00CC00F91574
:1003D00078172A287308183C031DEF292A28730868
:1003E000193C031D062A7327D0007327D1007327F9
:1003F000D2007327D3007327D4007327D500D6010A
:10040000FF30D700F914791178172A2873081A3C9D
:10041000031D0C2A78132A2873081B3C031D1F2A6E
:10042000163084000630F200732783178000840A98
:10043000F20B142ACB018A1506248A112A28730884
:100440001C3C031D262AE727E024832A7308203C4E
:10045000031D3E2A7327BB007327BA007327AC0025
:100460003A043B040319362AFA172A2807309F2733
:10047000B527BE2783018A150A1201287308213C7B
:10048000031D852A7327F4008313731883177327BA
:10049000F5008400E727F630812720308127F41B00
:1004A000662A0630F2007408213C03195F2A00080E
:1004B0008127840A03198317F20B572A832A7508A8
:1004C000E3278127F50AF20B5F2A832AF41303300E
:1004D000F2000317831274088F0075088D008316CD
:1004E0008C170C140000000083120C08FE000E088C
:1004F000FF0003137F0881277E088127F50A03196F
:10050000F40AF20B692AEA272A287308223C031D01
:100510008C2A732773272A287308233C031DA22AD9
:100520007327031D992A73278A15DB278A113E1327
:100530002A28AC002C09031D9F2A3E178A2ABE17C1
:10054000FA172A287308803C031DCF2A7327013C21
:10055000031D2A28F801F901FA01BE01BF01D601E5
:10056000B801B9018712E7278A15B4278A11A01F9D
:10057000BB2ABE27F917201FC02A07309F277917EB
:10058000D524C230E327023C0319FA158A15DB246F
:100590008A113E1779157817F817F8162A28730864
:1005A000873C031DDB2AF630812707308127280886
:1005B00081270530612B7308883C0319E72A7308EB
:1005C000893C0319E72A73088A3C031D012BF63086
:1005D00081277918FB2AF819EF2A08305F2B093098
:1005E00081276608812767088127680881276908AD
:1005F00081270230612B0A3081276E0881276F081E
:10060000182B73088B3C031D0D2BF63081270B3004
:100610008127013081270130182B73088C3C031D82
:100620001B2BF63081270C3081275C0881275D0861
:1006300081270430612B73088F3C0319232B730827
:10064000903C031D292BF63081270F30781E103087
:100650005F2B7308923C031D332BF6308127030177
:10066000F81E12305F2B7308943C03193F2B73085C
:10067000953C03193F2B7308993C031D562BF6300C
:100680008127F918472B1430791D15305F2B19304D
:100690008127500881275108812752088127530854
:1006A000812754088127550881272A2873089A3CF6
:1006B000031D2A28F63081270301781F1A3081276D
:1006C000063085272A283C27AE272A28B1272A2842
:1006D0008316861083128610F61F662B7308AA3CB9
:1006E0000319C12B7308FC3C0319632B7308FE3CF0
:1006F0000319632BFA1DAD2B7A19912B7308E03C7B
:10070000031D8A2B7A143E1F2A288E308A15F5265F
:100710008A112A287308E13C031DAD2BFA147A15BF
:100720002A28FA189B2B7308F03C0319B12BFA10F6
:1007300079127A142A287308F03C0319B12B730834
:10074000773C031DBE2BF919AB2B06134F30791ADA
:100750008038812706177A11BE2B7308F03C031DE1
:10076000B32B79162A28F919BE2B3E1FBB2BCE308E
:100770008A15F5268A1106137326061779127A1040
:100780002A28C42320172A28A827FA1DA6270230C2
:100790009F27B32706170800B7272A28BA27C801BA
:1007A0002A288316861183128611F61FCE2B48083D
:1007B000031DE62B7308AA3C0319CA2C7308FC3CE2
:1007C0000319CC2B7308FE3C0319CC2BC80A48082C
:1007D000013C0319F42B4808023C0319FE2B48087E
:1007E000033C0319012C072C7308C400C41BFC2B09
:1007F000441BFC2BC4192A28C8012A287308C500E9
:100800002A287308C600F81C092CC7012A28730877
:10081000C700C801A3014418A314C4182314230853
:10082000F838C000C301C101C201441D1A2C943024
:10083000E327C300C513441AC5174508EA00F81D8D
:10084000442CF701C51BF709DF0777080318770F5A
:10085000DE07DE1B432C8A1541248A1166086202DA
:100860000319352C031C442C3B2C67086302031925
:100870003B2C031C442C6708E3006608E2008A1541
:1008800027248A11442CDB24C613C41AC617781AED
:100890004B2CC609C60A4608EB00F81D722CF7015E
:1008A000C61BF709E10777080318770FE007E01B7D
:1008B000712C8A154C248A11680864020319632C70
:1008C000031C722C692C690865020319692C031C2E
:1008D000722C6908E5006808E4008A1534248A113E
:1008E000722CD624F81C9A2CC719842C47080F396F
:1008F00003198D2C471C802C9130E327C1008D2CCF
:100900009230E327C1008D2C471C8A2C9030E327BE
:10091000C1008D2C9330E327C100781D9A2C471E0F
:10092000952C9530E327C2009A2CC71E9A2C96303E
:10093000E327C200F81E2A28F9192A288613D3258E
:10094000281CB02C2308240601390319A92C2318CC
:10095000C02C2308240602390319B02CA318C02C7C
:10096000A81CC62C2308240601390319B92C231C02
:10097000C02C2308240602390319C62CA318C62C40
:100980002308A500A509F730C000D3258617230842
:10099000A4002A285326F8186326BC278617A01718
:1009A0002A280038031901300800DB24E101E001A6
:1009B000E501E4010800DF01DE01E301E2010800D6
:1009C000FC308127163084000630F20083170008BF
:1009D0008127840AF20BE62C08004008FD3C031D29
:1009E000F72C4008812726080E2527080E2D4008E1
:1009F000FE3C031D052DF91C012D7430261EF4301C
:100A0000812F4008812726080E2DF91C0B2D7530EB
:100A1000271EF530812F400881272708F400741A1B
:100A2000F41774127408812F5618252D26085706BE
:100A300001390319252D261C252D561456124F0851
:100A4000D90051080319252D8B27D618362D2608D5
:100A5000570602390319362DA61C362DD614D61288
:100A60004F08D90051080319362D8D275619472DE7
:100A70002608570604390319472D261D472D5615FC
:100A800056134F08D80050080319472D8F27D61941
:100A9000582D2608570608390319582DA61D582D1C
:100AA000D615D6134F08D80050080319582D912792
:100AB000561C762D261C612D59084F02550203182D
:100AC000642D56105612762D561A6C2D59084F0269
:100AD00051020318762D712D5B084F025302031843
:100AE000762D561456164F08DB008B27D61C942DF6
:100AF000A61C7F2D59084F0255020318822DD610CF
:100B0000D612942DD61A8A2D59084F025102031875
:100B1000942D8F2D5B084F0253020318942DD61489
:100B2000D6164F08DB008D27561DB22D261D9D2D94
:100B300058084F0254020318A02D56115613B22D17
:100B4000561BA82D58084F0250020318B22DAD2D88
:100B50005A084F0252020318B22D561556174F0865
:100B6000DA008F27D61DD02DA61DBB2D58084F02A9
:100B700054020318BE2DD611D613D02DD61BC62D68
:100B800058084F0250020318D02DCB2D5A084F029F
:100B900052020318D02DD615D6174F08DA00912728
:100BA0002608D70008004008F73C0319322EF81930
:100BB000E12D7918E12D400881276A0881276B080B
:100BC0008127791C0D2E6A08EC07EC1BEE2D6E08B0
:100BD0006C020318F52DEC009127E72D6E086C07C9
:100BE0000318F52DEC008F27EE2D6B08ED07ED1B9C
:100BF000032E6F086D0203180D2EED00781E8D2751
:100C0000781A8B27F92D6F086D0703180D2EED004C
:100C1000781E8B27781A8D27032E281D212E230856
:100C2000240601390319182E7530231CF53081274D
:100C30002308240602390319212E7430A31CF43032
:100C4000812743080319252E92279730E327F200C6
:100C5000410803192E2E9227F20B282E4208031961
:100C60000800922F40088127F40123082506013946
:100C700003193E2E23187414231CF414230825068C
:100C800002390319472EA3187415A31CF415230861
:100C9000A5007408812762088127630881276408FA
:100CA00081276508812FC830C0276430C0275030A5
:100CB000C027F230D427D527F8107308033C031956
:100CC000F8146430C02FC830C027C830C027503057
:100CD000C027F230D427D52778117308043C0319B4
:100CE00078156430C02F73088F3C031C08003E1039
:100CF000FA1D9A2E7A188D2E7308113C031D852E2D
:100D00007A13791E7A173830D02E09308A00A11B49
:100D10000A16730811218A11942E0A308A00A11B29
:100D20000A16730800228A118A1570238A11003866
:100D30000319D12E8A1591268A117A1BCE2E0D30D9
:100D40008A00A11B0A16730800258A11F200F21FFF
:100D5000F201F21B3E143F1EBC2E0F308A00A11B75
:100D60000A16730800278A1100380319BC2EF20EE8
:100D7000721372197217D02EBF1ECE2E0E308A003B
:100D8000A11B0A16730800268A1100380319CE2EFB
:100D9000F20CF20C7213721A7217D02E7308E3273A
:100DA000F3008A15B8268A11791AFC2E3E1CFB2EF8
:100DB000BE16721FDE2E1D303E1E81277218E72ED2
:100DC000AA303E198127B630BE188127F12E2A306D
:100DD0003E1D81277308603C0319F12E3630BE1C7E
:100DE0008127F218F72EB830BE198127FC2E383033
:100DF000BE1D8127FC2E3C27730803190800F31F32
:100E00000C2FF3137308753C031C0800F630812780
:100E100005308127053085277308753C031C0800C1
:100E20007308791A8038F0003A3C03199727700844
:100E30008127791E08003E1C0800BE12721F232F56
:100E40009D303E1E812772182C2F2A303E19812793
:100E50003630BE188127322FAA303E1D8127B6308A
:100E6000BE1C8127F218382F3830BE1981270800A0
:100E7000B830BE1D81270800BE1E08003E1A462F4E
:100E80003E19462FBE18462FBE1D0800BE129D30CB
:100E90008127AA308127B6308127B830812FBE1B29
:100EA0006A2F3B18572F8313BA1F662F5A2F8317A9
:100EB000BA1B662F3A0860390319662F3A08840076
:100EC0007039703C0319662F73088000BA0A031941
:100ED000BB0A6E2F73088A15D4278A11AC0B080041
:100EE000BE13FA1308008C1E732F981C7A2F181249
:100EF0001816732F181D7E2F1A08732F1A08F30067
:100F000008008A1588238A110800F200030181274E
:100F1000F20B862F08004830922F5030922F4B3022
:100F2000922F4D30F300812773088038812F781C71
:100F30009B2F78109C2F7814023078180630FA19FD
:100F40000138F700ED30C5277708C52FF830C52FD9
:100F5000F030C5270330FA190230C52F7913FF305E
:100F6000C52FFE30D02FF430C52FF530C52FF91323
:100F7000FF30D42FFE30DF2FF430D42FF530D42FB4
:100F8000F700F330D4277708D42FD0278A15B1255E
:100F90008A117208031908008A1557248A1108005B
:100FA0008A156C248A110800DF278A15DE258A112C
:100FB0007208031908008A1599248A1108008A15F5
:100FC000AE248A1108008A15F4248A110800061339
:0A0FD00086130800061786170800B4
:1010000093280130DB27FF30F5000F30F200FF306E
:10101000FE003F30FF0057307220F301F501F2016E
:1010200072168C1E11281A083F39FF00F3078C1E18
:1010300017281A08FE00F30757307220751D061393
:10104000751D861375190617751986177208F10034
:101050008030DB277108EB257508EB257108F2005D
:10106000F50A031D1128F20AF21E11288C1E3628DB
:101070001A087302031D5D28F601F501F2017216CC
:1010800060207F08F6077E08F607F50A031D402852
:10109000F20AF21E402876087302031D5D28FF3015
:1010A000F5000F30F200FE01FF01573072202030B2
:1010B000D4274F30D4274B30D4278A01830101280D
:1010C0000317831272088F0075088D0083168C1722
:1010D0000C140000000083120C08FE000E08FF0034
:1010E00003130800573C031D0800031783127208FE
:1010F0008F0075088D007E088C007F088E00831697
:101100008C1703108B1B03148B130C1555308D009B
:10111000AA308D008C14000000000C1103188B17EE
:101120008312031308008B018317A0308400800111
:10113000840A841B9728203084008001840A841F3D
:101140009D288313A03084008001840A841BA42876
:10115000213084008001840A841FAA288316031387
:10116000FF30870083128A01A101071E0528FF3086
:10117000F5000F30F2008A1560208A117E087F0486
:0C118000031D0528FF30A1000A160528F9
:10119000F000F3010830F2004D0DF30D7008F3027A
:1011A0000318D428F3070310CD0DF20BCC28F4015B
:1011B0000830F200750DF30DF40D7008F302F7011D
:1011C0000301031C770FF4020318EE287008F307DD
:1011D000F70103010318770FF4070310F50DF20B65
:1011E000DA2808000509A600260C1F39A600070901
:0E11F0001F39A7000800FF3E031DFB28080062
:10120000820700001F341C341F341E341F341E3468
:101210001F341F341E341F341E341F341F341F3438
:101220001F3482070034433400343F343D343B34B0
:101230003C34613400344434423440343E340F345E
:101240005B340034003438342A3400341D34103414
:1012500002340034003400342C341F341E34113472
:101260000334003400342E342D3420341234053449
:1012700004340034003439342F342134143413341A
:1012800006340034003431343034233422341534FD
:101290000734003400340034323424341634083433
:1012A00009340034003433342534173418340B3403
:1012B0000A340034003434343534263427341934B5
:1012C0000C3400340034003428342B341A340D34F8
:1012D000003400343A3436341C341B3400342B349C
:1012E00000340034003460340034003400340034FE
:1012F0000E34003400346D3400346A346734003402
:1013000000340034703471346E346B346C346834AF
:101310000134543462344E346F344A3466346934A0
:101320004C34003400340034003441344934003447
:10133000003400340034003400340034003400340D
:1013400000340034831603130E309F00FF308500F5
:10135000DF308700053086007D3092008312C53073
:101360009F008501860149309200910112151F30BE
:101370008316990018159816831218169817F801F5
:10138000F901FA01BE01BF01F220A201C901E60183
:10139000E701E801E9010130DC00DD00EE01EF01C9
:1013A000A301A401A501A8010A30CE00CF01C80104
:1013B000A901B801B901A01AEE29031795019B01F3
:1013C00094019A01930199010130920098009100D3
:1013D0009700900196010313B427A016201B7917DC
:1013E000A01BF9178C100800F2001830FB20F20B3C
:0413F000F5290800D3
:1014000082070034003400340034003400340034E7
:10141000003400340034003400340034003400342C
:10142000003490343834003400341D3495340034A2
:101430000034983400340034003400340034003474
:101440005634A034A1340034A334003400340034C2
:101450005734A83400340034AB3400340034003442
:101460005834B0340034B2340034B434003400346E
:101470007334B8340034BA34BB340034003400342C
:101480007434C03400340034003400340034003488
:101490000034C8340034653400340034CD340034B2
:1014A0000034D034003400340034003400340034CC
:1014B00000340034003472340034003400347534A5
:1014C000003400340034003400340034003400347C
:1014D00000340034553400344B3447340034003485
:1014E000003452345334503400344D3448340034D2
:1014F00000340034003446340034493445344F3429
:10150000003400340034003400340034003400343B
:10151000003400340034003400340034003400342B
:1015200000342908FF3E0319D72AFF3E0319BD2ABC
:10153000FF3E031D0800AB30E622F100A830E62292
:10154000F400A930E622BC0074082A02CD0071081C
:101550003C02E82274087002C82075083C02C900E9
:10156000A830F424490203188716A930F42449024C
:10157000031C8712A9011F150800AB010C30CD0018
:10158000AA30E622F0002A02031CCF2AAB0AAB0ADB
:10159000CD0BC02AAB03AB03AB30E622AF2A2B083E
:1015A0000319CC2A4D08013C0319CC2AE42A1E0851
:1015B00022020319BA2A1E08A200CD006430E822D4
:1015C0002209C8207508AA00A90A08002B07F42CD4
:1015D000F300F5010830F2004D08F30C0318F42A6B
:1015E000F20BED2ACD01FD2A0310F92AF30C0318A2
:0C15F000CD07CD0CF50CF20BF62A08001C
:101600008207000007340E340F34113412341334BF
:101610001534163417341E341F342434253426343C
:1016200027342E342F343634373439343A343D3479
:101630003E343F34413445344634473449344A34E7
:101640004C344E344F34523453345434553456346D
:10165000573459345B345E345F34623465346D34EE
:101660006F3476347F34803481348B348C348D34D1
:10167000820700003B345B343C341D342A34603430
:10168000103402343D3403343E341234053404340F
:101690003F3406344034073441343834323408346B
:1016A0000934423433340B340A344334343435345B
:1016B00027340C34443428342B341A340D34623437
:1016C000493436341B3461344C344F345534463449
:1016D0004534543474347334753456345734583470
:1016E000F3000B308A00A11B0A163630F200720894
:1016F000382373020319802BF20B772B03010800A8
:101700000B308A00A11B0A1672080023F3000800A0
:10171000F81F0800F10039080C1E952B3802031D34
:10172000952B71089900F91208000308BD00040800
:10173000BC008317390A8400503004020318840166
:10174000380804020319AB2B0408B9009030840751
:1017500071088000F9163C0884003D0883000800E9
:101760000317950A1508F9239B003C301502031C4A
:10177000F72B95019B01940A1408F9239A003C3039
:101780001402031CF72B94019A01930A1308F923FE
:10179000990018301302031CF72B93019901920A48
:1017A0001208F9239800031309308A00A11B0A16B6
:1017B000031711080F3900211202031CF72B013007
:1017C00092009800910A1108F92397000D30110238
:1017D000031CF72B013091009700900A1008F923A1
:1017E000960064301002031CF72B9001960103133E
:1017F0000800F400F7010A307402031C022CF40004
:10180000F70AFB2B770EF0397404080010308400BF
:1018100083170630F200063084070008F400063013
:10182000840203017418013EF418023E7419043E48
:10183000F419083E741A0A3EF41A143E741B283E2A
:10184000F41B503E8000840AF20B0B2C0800DF01D1
:10185000DE015C08F2006308DF0762080318620F0C
:10186000DE07F20B2B2C0800E101E0015D08F2001D
:101870006508E10764080318640FE007F20B382CD1
:1018800008005F08F5005E08CD005C08C8207508F8
:10189000E3004D08E20008006108F5006008CD0093
:1018A0005D08C8207508E5004D08E4000800F60151
:1018B0009125F3010830F200F30CF3139125F304A2
:1018C000F606F20B5C2C9125F606912500380319DB
:1018D000F601F61FF3010800F400F60183168610E6
:1018E000831286101830FB20831606108312061010
:1018F000792C7A2C0000831686148312B125720885
:10190000031908000830F2007408F6069F25F40C4D
:10191000F20B842C76099F2501309F25F501861C4A
:10192000932CF50B8F2CF5018618982CF50B942C25
:101930000800F601BE25F3010830F200F30CF313A2
:10194000BE25F304F606F20B9E2CBE25F606BE2538
:1019500000380319F601F61FF3010800F400F60140
:1019600083168611831286111830FB208316061108
:1019700083120611BB2CBC2C000083168615831223
:10198000DE257208031908000830F2007408F60614
:10199000CC25F40CF20BC62C7609CC250130CC25D5
:1019A000F501861DD52CF50BD12CF5018619DA2C05
:1019B000F50BD62C0800F425203083178000840A0C
:1019C000F50BDC2C0800C630DB27F4258317000854
:1019D000D427840AF50BE62C0800F4000A307402C0
:1019E0000318073E3A3E0800031783128D00831642
:0C19F0008C130C1483120C080313080065
:101A000082070034003400340034003400340034E1
:101A10000034003400340034003400340034003426
:101A20000034003400340034003400340034003416
:101A30000034003400340034003400340034003406
:101A400000340034003400340034003400340034F6
:101A500000340034003400340034003400340034E6
:101A600000340034003400340034003400340034D6
:101A700000340034003400340034003400340034C6
:101A800000340034003400340034003400340034B6
:101A900000340034003400340034003400340034A6
:101AA0000034003400340034003400340034003496
:101AB0000034003400340034003400340034003486
:101AC0000034003400340034003400340034003476
:101AD0000034003400340034003400340034003466
:101AE0000034003400340034003400340034003456
:101AF0000034003400340034003400340034003446
:101B00000034003400340034003400340034003435
:101B10000034003400340034003400340034003425
:101B200000340301F501861C972DF50B932D061843
:101B30008030F50186189E2DF50B9A2D0800F501D1
:101B4000861CA42DF50BA02D83160139031D061448
:101B5000031906108312F5018618B02DF50BAC2D74
:101B600008001030F200F501CD01861C0800CD0BF5
:101B7000B52DF50BB52DF20BB52D08000301F501C0
:101B8000861DC42DF50BC02D06198030F501861970
:101B9000CB2DF50BC72D0800F501861DD12DF50BBA
:101BA000CD2D83160139031D061503190611831265
:101BB000F5018619DD2DF50BD92D08001030F20046
:101BC000F501CD01861D0800CD0BE22DF50BE22DB0
:101BD000F20BE22D0800F000700E0F39ED24D4272F
:101BE00070080F39ED24D42F203084000830F50020
:021BF0000800EB
:101C000082070034003400340034003400340034DF
:101C10000034003400340034003400340034003424
:101C20000034003400340034003400340034003414
:101C30000034003400340034003400340034003404
:101C400000340034003400340034003400340034F4
:101C500000340034003400340034003400340034E4
:101C600000340034003400340034003400340034D4
:101C700000340034003400340034003400340034C4
:101C800000340034003400340034003400340034B4
:101C900000340034003400340034003400340034A4
:101CA0000034003400340034003400340034003494
:101CB0000034003400340034003400340034003484
:101CC0000034003400340034003400340034003474
:101CD0000034003400340034003400340034003464
:101CE0000034003400340034003400340034003454
:101CF0000034003400340034003400340034003444
:101D00000034003400340034003400340034003433
:101D10000034003400340034003400340034003423
:101D200000347308593C0319992E7308123C031DA3
:101D30009F2EFA12791A0800FA16BF1608007308C7
:101D4000193C031DA72E7A13791E7A170800730811
:101D5000393C031DB12E7A12791A08007A163F1603
:101D60000800791A08007A1E3F12FA1EBF120800F6
:101D700073081D3C031DC02E3E12791E3E1608003E
:101D80007308363C031DC82EBE10791EBE14080011
:101D900073082A3C031DD02E3E11791E3E15080003
:101DA0007308383C031D0800BE11791EBE150800DB
:101DB0003E1F08008030DB27173084000430F50018
:101DC000F2262F30ED2EF2267508023C2030031D3E
:101DD000ED2E03171B1CED2E3A300313D427840A73
:101DE000F50BE32E83170008EB2D791AFA2EDB276B
:0C1DF0007308EB2D8E30AF27CE30AF2FE4
:101E000082070034003400340034003400340034DD
:101E10000034003400340034003400340034003422
:101E20000034003400340034003400340034003412
:101E30000034003400340034003400340034003402
:101E400000340034003400340034003400340034F2
:101E500000340034003400340034003400340034E2
:101E600000340034003400340034003400340034D2
:101E700000340034003400340034003400340034C2
:101E800000340034003400340034003400340034B2
:101E900000340034003400340034003400340034A2
:101EA0000034003400340034003400340034003492
:101EB0000034003400340034003400340034003482
:101EC0000034003400340034003400340034003472
:101ED0000034003400340034003400340034003462
:101EE0000034003400340034003400340034003452
:101EF0000034003400340034003400340034003442
:101F00000034003400340034003400340034003431
:101F10000034003400340034003400340034003421
:101F200000343E1F0800C030DB274908F100303084
:101F3000F0000A307102031CA02FF100F00A992F63
:101F40007008D42730307107D427DF30D4274330CE
:101F5000D4272030D4272D30871A2B30D42FDB27DD
:101F60002030D4272030D42FC830F4210310033080
:101F7000E1273230F421061606122730FB20061620
:101F800006122730FB2003100230E1272730FB2008
:101F90002830DB270830DB270130DB273230F42103
:101FA0000630DB270C30DB2FF400740E0314E1271E
:101FB00074080314E12FF400740E0310E127740871
:101FC0000310F700F70E0630F20086168612F20BA9
:101FD000E52F0616861686120612031806168616B2
:101FE00086120430F200F70D061203180616861644
:0C1FF0008612F20BF32F061606120800F2
:021FFE00FF3FA3
:02400E00313F40
:1042000000000000000000000000000000003B0073
:10421000010000000000000000000F005B003C00F7
:1042200000001D002A0060003A00100002003D005E
:10423000000038002C001F001E00110003003E008B
:1042400000002E002D0020001200050004003F0099
:10425000000039002F002100140013000600400068
:10426000000031003000230022001500070041004B
:104270000000380032002400160008000900420047
:10428000000033002500170018000B000A0043004F
:104290000000340035002600270019000C004400FF
:1042A0000000000028002B001A000D0062004900E9
:1042B0001D0036001C001B002B00000061004C009C
:1042C00050004B004F004800530055000E005200B4
:1042D00000006D004D006A00670046004700450081
:1042E000700071006E006B006C0068005400650087
:1042F000000072006F0000004E006900660074004C
:1043000073007500000000004A000000000000007B
:104310000000000000005600570058000000000098
:1043200059005A005C005D0037005E005F0003002A
:10433000450069006600660065006C0020003300DF
:1043400020004C00430044002000200020002000FA
:10435000280023001B004000210039002700340002
:104360002F002F00380029004400240052001E00B6
:10437000640019007800140096000F00B4000B00D0
:06438000DC000600030052
:00000001FF
