:040000000C948E02CC
:0A00080080990C94D2120C94ED12B2
:14008C004F12521278125512781258127812781278125B12AB
:1400A0006D1271125E126112781264127812671278126A125E
:1400B4007512AD0300202020202020202020303030303020D1
:1400C8002020202020202020202020202020202020904040F4
:1400DC00404040404040404040404040400C0C0C0C0C0C0C7C
:1400F0000C0C0C4040404040404009090909090901010101DE
:140104000101010101010101010101010101010140404040D7
:1401180040400A0A0A0A0A0A020202020202020202020202FF
:14012C0002020202020202024040404020000000000000008F
:140140000000000000000000000000000000000000000000AB
:14015400000000000000000000000000000000000000000097
:14016800000000000000000000000000000000000000000083
:14017C0000000000000000000000000000000000000000006F
:1401900000000000000000000000000000000000000000005B
:1401A400000000000000000000000000000000000000000047
:1401B800000A436D645B25645D3A2025782025782025782043
:1401CC002578202578202578000A4472697665206E6F742073
:1401E00070726573656E7421000A446F6E6521000A534C414E
:1401F4005645206E6F742070726573656E742E000A576520B6
:14020800676F74207468697320736974756174696F6E3A2066
:14021C002578002D3E20496E697469616C697A6174696F6EDE
:14023000206F6620494445206472697665732E2E2E20000A72
:140244004572726F722028255829207768656E2077726974F6
:14025800696E6720736563746F727321000A4572726F7220DC
:14026C0028255829207768656E2072656164696E67207365EC
:1402800063746F727321000A4C424120736563746F72732002
:140294002D206869676865722068616C66205B257820257802
:1402A8005D20000A4C424120736563746F7273202D206C6F81
:1402BC00776572202068616C66205B25782025785D20000AA9
:1402D0004C424120736563746F72733A205B257820257820F9
:1402E40025782025785D20000A4C424120737570706F727419
:1402F8003A204E4F000A4C424120737570706F72743A205932
:14030C004553000A536563742F547261636B3A205B25782016
:1403200025785D000A486561647320202020203A205B2578EE
:140334002025785D000A43796C696E64657273203A205B25EA
:14034800782025785D00202D206E6F742064756D70696E673D
:14035C002C2062656361757365206472697665206E6F74209E
:1403700070726573656E742E000A0A44756D70696E672069D9
:140384006E666F2061626F75743A20536C617665000A0A443A
:14039800756D70696E6720696E666F2061626F75743A204D13
:1403AC006173746572000A506572666F726D696E6720524544
:1403C0005345542E2E2E000A556E6B6E3A2025782025782039
:1403D4002578202578202578202578000A49000A4D536E6373
:1403E800000A4D536C000A57000A57657272000A576F6B00A5
:1403FC000A52000A52657272000A526F6B000A5273000A4499
:1404100072000A4572726F723A206261642064657669636541
:1404240020233A202578202578202578202578202578202551
:140438007800257820257820257800257820257820257820EA
:14044C00257820000A49434420282564293A20003C696E742A
:1404600065676572206F6E6C79207072696E74662C2073652C
:140474006C6563742050726F6A6563742D3E4F7074696F6EF1
:14048800732D3E5461726765742C224650207072696E746684
:14049C002220746F207072696E7420666C6F6174696E672046
:1404B000706F696E74206E756D626572733E00286E756C6CD1
:1404C400207074722070617373656429003031323334353680
:1404D8003738396162636465666768696A6B6C6D6E6F70716F
:1404EC0072737475767778797A0030313233343536373839C9
:140500006162636465666768696A6B6C6D6E6F707172737495
:0705140075767778797A0013
:14051C00CFEFD0E1CDBFDEBFC054D0400AEA08830024E2E6A4
:14053000F4E015E0E530F10711F00192FBCF0083E9EBF1E05B
:14054400A0E0B1E015E0EB31F10721F0C89531960D92F9CFED
:140558000E94AF02FFCF81E090E090930405809303050E94B4
:14056C002304819BFECF789422242092B20420927A041FC0A2
:1405800080916404813009F41CD08091B204813049F483E03C
:140594008093B20401E00E940E0822242092B20480917A04B4
:1405A800813049F483E080937A0400270E940E082224209286
:1405BC007A04E0CF08952C9722242092640420926204209076
:1405D0006B0433243B862A8620906A0433243986288620904E
:1405E400690433243F822E822090680433243D822C8220903E
:1405F800670433243B822A822090660433243982288220913D
:14060C007604332700E011E00E94DF1720906304222029F02B
:14062000009176040E94081302C00E94A60E2C9608950E94E5
:14063400BF16809166048F718F3189F581E08093630425E044
:1406480030E0009167041127007E10700E94B915A801003013
:14065C00010769F04130E0E05E0769F04230E0E05E0769F04A
:140670004530E0E05E0769F010C087E08093760416C08BE07E
:140684008093760412C08BE0809376040EC08DE08093760443
:140698000AC087E08093760406C022242092630486E08093F2
:1406AC0076040E94C21608950E94BD16B801969A222424BA27
:1406C000AB01452F5527507060FD19C02092650486E0809300
:1406D40076042092640420926304842F869586958695869546
:1406E80086958770813021F481E08093620403C02224209291
:1406FC00620420906204222001F186E694E0E0916504FF275A
:14071000E80FF91F4083809165048F5F8093650420907604F5
:14072400821508F4969880916504823009F47FDF209076044F
:1407380030906504321419F481E080936404809165048F301C
:14074C0019F42224209265040E94AB1608950E94BF16402F45
:140760002090030530900405222011F4332021F04A3011F4DA
:140774000DE0F1DF20909B0025FEFCCF40939C00042F1127A1
:140788000E94C216089520909B0027FEFCCF00919C001127A6
:14079C00089520909B0027FE04C000919C00112702C00FEF53
:1407B0001FEF08950E94BD16602F442702C006D0439546174E
:1407C400E0F30E94AB160895002707C0222702C0000023959D
:1407D8002E37E0F303950E37B8F3089522242BBA2ABA80EC35
:1407EC0088BB87BB25BA24BA82BB88EC81BB23B88BEF82B93A
:140800002092620020926100209265002092640008952224AD
:1408140020929A0020929B0086E080939D0083E3809399000F
:140828002092980088E180939A000895222425BC81EF84BDE7
:14083C008FE083BD85E085BD0895F89422242CBE20926D00DA
:14085000C9DFDFDF222425BE20926A002ABE82E089BF80E4F3
:1408640087BF20927D00479A08950E94BD16602F2697662343
:1408780039F04FEA54E00CED12E00E94DF1706C047E754E02B
:14088C0000EC12E00E94DF17662321F02090AF04222031F082
:1408A000662349F420907704222029F405E912E00E94DF177C
:1408B40047C0FA012084332439822882FA012185332700E8EB
:1408C80012E00E94DF17FA012680332439822882FA01278192
:1408DC0033270BE612E00E94DF17FA012480332439822882D8
:1408F000FA012581332706E512E00E94DF17FA0121802220A6
:1409040029F004E412E00E94DF1704C003E312E00E94DF1720
:14091800FA01228433243D822C82FA01238433243B822A8204
:14092C00FA012484332439822882FA012585332706E112E080
:140940000E94DF1726960E94AB1608950E94B916402F2297B6
:14095400442329F00CED12E00E94DF1704C000EC12E00E9448
:14096800DF17442321F02090AF04222031F0442351F42090EB
:14097C007704222031F405E912E00E94DF1701E098C0042FA1
:140990000E948E0B042F0E94660B8FEF809361008ABB8FE725
:1409A40083B90CEE0E94140B0E944B0BA02E002309F083C023
:1409B8002224209261002ABA8FEF809362008BBB87E483B90E
:1409CC00CC246CC00E94380BA02E0E943C0B602F4C2D5527DB
:1409E0004133E0E05E0709F43DC081E390E0841795076CF009
:1409F4004130E0E05E0799F04330E0E05E07D1F04630E0E041
:140A08005E0709F14CC04C33E0E05E0799F14D33E0E05E079C
:140A1C0009F439C042C02A2C332439822882262F332700E825
:140A300012E00E94DF1737C02A2C332439822882262F332770
:140A44000BE612E00E94DF172CC02A2C332439822882262FD0
:140A5800332706E512E00E94DF1721C061FF05C004E412E0DB
:140A6C000E94DF171AC003E312E00E94DF1715C02A2C332412
:140A800039822882262F332702EF11E00E94DF170AC02A2CB4
:140A9400332439822882262F33270EEC11E00E94DF17C39409
:140AA8008C2D8F3F08F490CF0E94380BA02E0E943C0B602F2D
:140ABC00002722960E94B11608953A932A930E94B716402FD9
:140AD000EF972697442321F02090AF04222031F0442331F405
:140AE40020907704222011F401E0E9C0442329F08FEA94E095
:140AF80098878F8304C087E794E098878F832224EF81F885AF
:140B0C002282FE01E95AFF4F00800C82FE01EB5AFF4F008081
:140B20000A82FE01ED5AFF4F00800882FE01EF5AFF4F208160
:140B3400042F0E94980D002311F401E0C0C0042F0E94660B64
:140B48008FEF809361008ABBEF81F8852180222009F03BC09E
:140B5C004E83CE0109969D838C83FE01E95AFF4F00800A827B
:140B7000FE01EB5AFF4F00800882FE01ED5AFF4F2081FE01A1
:140B8400EF5AFF4F00810E948F0C8FE583B96F856F70606ABB
:140B9800442309F46061062F0E94140B042F0E94660B8FEF6A
:140BAC00809361008ABB87E783B90D850E94140B8FE483B9D0
:140BC00009890E94140B8FE683B90A890E94140B2DC08FE568
:140BD40083B9FE01EF5AFF4F60816F70606E442309F4606188
:140BE800062F0E94140B042F0E94660B8FEF809361008ABB86
:140BFC0087E783B9FE01E95AFF4F00810E94140B8FE483B9BA
:140C1000FE01EB5AFF4F00810E94140B8FE683B9FE01ED5A05
:140C2400FF4F00810E94140B87E583B9FE01E15BFF4F00817A
:140C38000E94140B8FE783B901E20E94140B0E944B0B602F0A
:140C4C00002351F0262F33270CEA11E00E94DF170E94860CCE
:140C6000062F2FC02224209261002ABA8FEF809362008BBBE6
:140C740087E483B9442718C0662713C0CC240DC00E94380B80
:140C8800A02E0E943C0BE02E0A2D0E94A4100E2D0E94A41075
:140C9C00C3948C2D823080F36395603858F34395FE01E15B21
:140CB000FF4F0080401510F381E0EF81F88582830027EF960B
:140CC40026960E94B416229608953A932A930E94B716402F37
:140CD800EF972697442321F02090AF04222031F0442331F4FB
:140CEC0020907704222011F401E0E2C0442329F08FEA94E092
:140D000098878F8304C087E794E098878F832224EF81F885A4
:140D14002282FE01E95AFF4F00800C82FE01EB5AFF4F008077
:140D28000A82FE01ED5AFF4F00800882FE01EF5AFF4F208156
:140D3C00042F0E94980D002311F401E0B9C0042F0E94660B61
:140D50008FEF809361008ABBEF81F8852180222009F03BC094
:140D64004E83CE0109969D838C83FE01E95AFF4F00800A8271
:140D7800FE01EB5AFF4F00800882FE01ED5AFF4F2081FE0197
:140D8C00EF5AFF4F00810E948F0C8FE583B96F856F70606AB1
:140DA000442309F46061062F0E94140B042F0E94660B8FEF60
:140DB400809361008ABB87E783B90D850E94140B8FE483B9C6
:140DC80009890E94140B8FE683B90A890E94140B2DC08FE55E
:140DDC0083B9FE01EF5AFF4F60816F70606E442309F460617E
:140DF000062F0E94140B042F0E94660B8FEF809361008ABB7C
:140E040087E783B9FE01E95AFF4F00810E94140B8FE483B9AF
:140E1800FE01EB5AFF4F00810E94140B8FE683B9FE01ED5AFB
:140E2C00FF4F00810E94140B87E583B9FE01E15BFF4F008170
:140E40000E94140B8FE783B901E30E94140B0E944B0B602FFF
:140E5400002351F00E94860C262F33270AE811E00E94DF17C8
:140E6800062F28C08FEF809361008ABB87E483B9442715C03B
:140E7C00662710C0CC240AC00E94B610A02E0E94B610E02E9F
:140E90002A2D0E94210BC3948C2D823098F36395603870F3E9
:140EA4004395FE01E15BFF4F0080401528F381E0EF81F8859B
:140EB80082830027EF9626960E94B416229608950E94BD1683
:140ECC00402F0E94800C22242092B1042092790406E611E0BC
:140EE0000E94DF1781E08093AF0401E00E94660B442349F0AB
:140EF4008FE783B98FEF809361008ABB00E90E94140B01E076
:140F08000E94660B0E943F0B402F242F33270BE411E00E9438
:140F1C00DF17642F77276030670769F06130E0E07E0781F0FC
:140F30006030E0E07E07CCF06138E0E07E0771F014C02224C3
:140F44002092AF0481E08093770412C081E08093AF04809339
:140F580077040CC081E08093AF0422242092770405C0222499
:140F6C002092AF042092770420907704222019F104E60E94DC
:140F8000DA038FEF809361008ABB00270E948E0B87E583B93F
:140F940000270E94140B8FE783B901E90E94140B05E00E947D
:140FA800DA030E943F0B402F002339F407E311E00E94DF173A
:140FBC002224209277042090AF04222049F001E00E94DA0B68
:140FD00001E00E94A10B81E08093B10420907704222049F00F
:140FE40000270E94DA0B00270E94A10B81E08093790400E302
:140FF80011E00E94DF172090AF04222011F001E032DC209017
:14100C007704222011F000272CDC0E94AB1608951A930A9399
:141020000E94B716EF976F97FE01E859FF4F0080002021F082
:141034002090AF04222051F0FE01E859FF4F0080002051F44F
:1410480020907704222031F40CE111E00E94DF1701E0EAC100
:14105C00FE01E859FF4F0080002041F08FEA94E0FE01E55AF6
:14107000FF4F9183808307C087E794E0FE01E55AFF4F9183BE
:1410840080832224DE01A55ABF4FED91FC912282DE01A55A96
:14109800BF4FED91FC912180222009F449C088E190E0DE018A
:1410AC00A55ABF4FED91FC9125843324442455248A93810198
:1410C00092010E94041718012901DE01A55ABF4FED91FC9192
:1410D4006484772488249924430166247724260C371C481CCA
:1410E800591C88E090E0DE01A55ABF4FED91FC91638477242E
:1410FC00882499248A93830194010E940417200E311E421EA7
:14111000531EDE01A55ABF4FED91FC91628477248824992479
:14112400260C371C481C591CFE012786308A418A528A88C004
:14113800DE01A55ABF4FED91FC912580332444245524DE01F0
:14114C00A55ABF4FED91FC916480772488249924620C731C92
:14116000841C951C88E090E08A93830194010E940417FE0160
:14117400078B108F218F328FDE01A55ABF4FED91FC91278027
:14118800332444245524DE01A55ABF4FED91FC9166807724A3
:14119C0088249924620C731C841C951C88E090E08A9383010F
:1411B00094010E940417FE01038F148F258F368FDE01A55A4E
:1411C400BF4FED91FC912184332444245524DE01A55ABF4F35
:1411D800ED91FC916084772488249924620C731C841C951CC2
:1411EC0088E090E08A93830194010E940417FE01078F10A3DC
:1412000021A332A3FE01238C348C458C568CFE016788708C36
:14121400818C928C5A924A923A922A92830194010E947B16FF
:14122800FE01278C30A041A052A05A924A923A922A920E946B
:14123C007B16FE010787108B218B328B44E650E060E070E092
:14125000FE0127843088418852887A936A935A934A9381012F
:1412640092010E94FA15FE01038B148B258B368B40E050E045
:1412780060E070E0FE014783508761877287BCC088E190E0FC
:14128C00FE0127803084418452848A93810192010E9410175E
:1412A000180129014FEF50E060E070E024223522462257227B
:1412B400FE01E35AFF4F20824FEF50E060E070E0FE01278056
:1412C800308441845284120144245524242235224622572251
:1412DC00E22C88E090E0FE0127803084418452848A93810184
:1412F00092010E941017180129014FEF50E060E070E0242207
:14130400352246225722C22C4FEF50E060E070E0FE0127800B
:141318003084418452842422352246225722A22CFE0123887C
:14132C00348845885688FE0167807084818492845A924A9289
:141340003A922A92830194010E94FA15FE0103871487258777
:14135400368788E090E0FE0123843484458456848A93810150
:1413680092010E941017180129014FEF50E060E070E024228E
:14137C00352246225722DE01A55ABF4FED91FC9127864FEF43
:1413900050E060E070E0FE01238434844584568424223522EB
:1413A40046225722DE01A55ABF4FED91FC912686AE82CC8233
:1413B800EA82FE01E35AFF4F0080088221E0FE01E859FF4F92
:1413CC00008136D080916404813011F40E94E10241E050E081
:1413E00060E070E0FE012780308441845284240E351E461E8B
:1413F400571EFE012782308641865286FE0127843088418848
:141408005288FE0167807084818492846214730484049504F3
:14141C0008F434CF81E0DE01A55ABF4FED91FC918283002739
:14143000EF966F960E94B416229608950E94B716C22E602F6F
:14144400EF972497662321F02090AF04222031F0662351F425
:1414580020907704222031F40CE111E00E94DF1701E0D4C003
:14146C00662319F04FEA54E002C047E754E02224FA01228264
:14148000FE01ED5AFF4F00800C82FE01EF5AFF4F00800A8214
:14149400FE01E15BFF4F00800882FE01E35BFF4F2081062F50
:1414A8000E94980D002311F401E0B0C0062F0E94660B8FEFAA
:1414BC00809361008ABBFA012180222009F03DC06E83CE01CF
:1414D00007969D838C83FE01ED5AFF4F00800A82FE01EF5A54
:1414E400FF4F00800882FE01E15BFF4F2081FE01E35BFF4FE7
:1414F80000810E948F0C8FE583B98D858F70806AA82E662318
:14150C0011F48061A82E0A2D0E94140B062F0E94660B8FEF51
:14152000809361008ABB87E783B90B850E94140B8FE483B954
:141534000F850E94140B8FE683B908890E94140B2FC08FE5E8
:1415480083B9FE01E35BFF4F80818F70806EA82E662311F476
:14155C008061A82E0A2D0E94140B062F0E94660B8FEF8093F3
:1415700061008ABB87E783B9FE01ED5AFF4F00810E94140B41
:141584008FE483B9FE01EF5AFF4F00810E94140B8FE683B91B
:14159800FE01E15BFF4F00810E94140B87E583B90C2D0E94F1
:1415AC00140B8FE783B901E30E94140B0E944B0BA02E0023CC
:1415C00051F02A2D33270AE811E00E94DF170E94860C0A2D3F
:1415D4001FC08FEF809361008ABB87E483B9662711C0AA241A
:1415E8000BC0EE2405C0222700270E94210BE3948E2D82302B
:1415FC00C0F3A3948A2D803890F363956C1568F381E0FA01CF
:1416100082830027EF9624960E94B416089500000000000052
:14162400000008950E94BF16402F18984093620022242BBA1F
:14163800F2DF189A0E94C21608950E94BD16622F402F1898DF
:14164C00609362004BBBE5DF189A0E94AB1608950E94BF1642
:141660001998DDDF40B1199A042F0E94C21608951998D5DFB6
:1416740000B1089509B3199A089587E683B922242092610006
:141688002ABA8FEF809362008BBBE4DF08950E94BF16222414
:14169C00209261002ABA8FEF809362008BBB8FE783B909C08F
:1416B000D5DF402F00FF02C0E2DF05C043FF01C001C0F6CF33
:1416C40000270E94C21608950E94BF16402F442321F02090C6
:1416D800AF04222031F0442329F420907704222009F415C025
:1416EC00042F16D02224209261002ABA8FEF809362008BBB5B
:141700008BE783B907C0AADF402F06FF03C007FD01C001C01A
:14171400F8CF0E94C21608950E94BF16402F8FEF809361000B
:141728008ABB87E783B9442319F000EE79DF02C000EF76DF02
:14173C000E94C21608950E94BD16402F442319F06FEA74E081
:1417500002C067E774E0442321F02090AF04222031F044237C
:1417640031F420907704222011F401E01EC0042FABDF8FEFE0
:14177800809361008ABB87E583B9FB01248100275CDF8FE585
:14178C0083B9FB0166816150442309F46061262F002751DFA8
:1417A0008FE783B901E940DF042F90DF68DF0E94AB16089591
:1417B4000E94B716402F442319F06FEA74E002C067E774E0C2
:1417C800442321F02090AF04222031F0442331F42090770418
:1417DC00222011F401E08BC0042F9ADF042F70DF8FEF8093C7
:1417F00061008ABB8FE783B90CEE16DF4CDFC02E002309F069
:141804007AC02224209261002ABA8FEF809362008BBB87E4B5
:1418180083B9EE2465C028DFC02E2ADFA02E4E2D5527413312
:14182C00E0E05E0709F42CC081E390E0841795076CF04130C2
:14184000E0E05E07A1F04330E0E05E07A9F04630E0E05E0712
:14185400B1F02DC04C33E0E05E0709F41FC04D33E0E05E07CD
:1418680009F41FC022C0FB01A186FB01C0861DC0FB01A78247
:14187C00FB01C68218C0FB01A582FB01C48213C0A1FE04C0A1
:1418900081E0FB0181830DC02224FB01218209C0FB01A38643
:1418A400FB01C28604C0FB01C486FB01A5868E2D8B31B8F09C
:1418B8008EE28E15A0F0CB014096EE2DFF277B97EE0FFF1F69
:1418CC00E80FF91FA082CB014196EE2DFF277B97EE0FFF1FC6
:1418E000E80FF91FC082E3948E2D8F3F08F497CFBFDEC02EB6
:1418F400C1DEA02EC2DE0E94B4160895C79801E00E94DA030B
:14190800C79A089509EF12E00E94DF17F5DF00270E94640743
:14191C0008950E94B716C22EE02E689708A4002021F08FEA58
:1419300094E05C0103C087E794E05C0188E190E02E2C332446
:14194400442455248A93810192010E940417180129016C2CE4
:14195800772488249924430166247724260C371C481C591CB0
:14196C0088E090E06AA07724882499248A93830194010E94A9
:141980000417200E311E421E531E6CA0772488249924260CA8
:14199400371C481C591CFE012482358246825782F50126807A
:1419A800F5013780442437FC4094552447FC5094FE01248AC2
:1419BC00358A468A578AF5012084F5013184442437FC4094F3
:1419D000552447FC5094FE01208A318A428A538AF5012480BC
:1419E400F5013580442437FC4094552447FC5094FE01208294
:1419F800318242825382FE012088318842885388FE016080AB
:141A0C007180828093805A924A923A922A92830194010E94B5
:141A20007B16FE010087118722873387FE0120843184428482
:141A34005384FE0164807580868097805A924A923A922A9282
:141A4800830194010E94FA156801FE01208431844284538462
:141A5C00FE0164807580868097805A924A923A922A928301AD
:141A700094010E94FC15FE010487158726873787FE012080EA
:141A8400318042805380FE0164847584868497845A924A923B
:141A98003A922A92830194010E94FA157801FE01208031801F
:141AAC0042805380FE0164847584868497845A924A923A92F8
:141AC0002A92830194010E94FC1541E050E060E070E0180190
:141AD4002901240E351E461E571E5101C1019070EEA1FFA133
:141AE8008483C101892F99279070EEA1FFA18583C7019070AA
:141AFC00EEA1FFA18087C701892F99279070EEA1FFA1818729
:141B1000C6019070EEA1FFA18683C601892F99279070EEA1F4
:141B2400FFA1878368960E94B41608950E94B916C22EA02ECD
:141B38006497AA2021F08FEA94E05C0103C087E794E05C0177
:141B4C0088E190E02C2C3324442455248A93810192010E9448
:141B60000417180129016C8C772488249924430166247724AE
:141B7400260C371C481C591C88E090E06E8C77248824992429
:141B88008A93830194010E940417200E311E421E531E68A000
:141B9C00772488249924260C371C481C591CFE01208231827F
:141BB00042825382F5012180222009F439C088E190E0F501EA
:141BC40025843324442455248A93810192010E940417180124
:141BD8002901F5016484772488249924430166247724260C52
:141BEC00371C481C591C88E090E0F501638477248824992400
:141C00008A93830194010E940417200E311E421E531EF50199
:141C14006284772488249924260C371C481C591CFE012482CF
:141C280035824682578270C0F5012580332444245524F50157
:141C3C006480772488249924620C731C841C951C88E090E086
:141C50008A93830194010E940417FE0100871187228733870C
:141C6400F5012780332444245524F5016680772488249924B7
:141C7800620C731C841C951C88E090E08A93830194010E945A
:141C8C000417FE010487158726873787F5012184332444243E
:141CA0005524F5016084772488249924620C731C841C951C8B
:141CB40088E090E08A93830194010E940417FE01008B118B2B
:141CC800228B338BFE012484358446845784FE0160847184C0
:141CDC00828493845A924A923A922A92830194010E947B163B
:141CF000FE0120883188428853885A924A923A922A920E94E9
:141D04007B16FE01048315832683378341E050E060E070E0D8
:141D1800FE012480358046805780241A350A460A570AFE0195
:141D2C006080718082809380621473048404950410F401E0CA
:141D400001C0002764960E94B11608950E94BD162A97969A41
:141D5400409167045527407E50704030450749F04030E0E020
:141D68005E074CF04032E0E05E0719F004C041E02FC04427E7
:141D7C002DC085E08093E90485E28093E80422242092E704B8
:141D900021E002E0C3D120906B0433243986288620906A04C7
:141DA40033243F822E822090690433243D822C822090680466
:141DB80033243B822A82209067043324398228822091660465
:141DCC00332709E513E00E94DF176EC1442321F02090AF0426
:141DE000222031F0442389F420907704222069F485E0809366
:141DF400E90485E28093E80422242092E704242F02E08AD115
:141E080055C16091660477276F7170706231E0E07E0709F422
:141E1C0017C16531E0E07E0709F4FFC085E190E08617970732
:141E300014F16030670729F16130E0E07E0709F449C0633012
:141E4400E0E07E0709F44FC06430E0E07E0709F459C06830B2
:141E5800E0E07E0709F468C06A30E0E07E0709F49BC06B303A
:141E6C00E0E07E0709F4CEC0F3C06A31E0E07E0709F4DBC067
:141E8000EDC0442321F02090B104222031F4442379F42090D9
:141E94007904222059F022242092E9042092E8042092E70412
:141EA800242F002737D10CC082E08093E90484E08093E80413
:141EBC0022242092E704242F08E02AD1F5C005E513E00E94C5
:141ED000DF17F0C022242092E9042092E8042092E704242FE5
:141EE40000271AD1E5C080916A04843019F4042F4BD102C0E2
:141EF800042F62D1DBC001E513E00E94DF17D6C022242092D6
:141F0C00E9042092E8042092E704242F002700D1442321F0D6
:141F200081E08093B204C6C081E080937A04C2C0209069046C
:141F34002E82209068042C82809167048F718A8322242882A6
:141F480020916A04042F0E946305602F002379F40CE413E027
:141F5C000E94DF1722242092E9042092E8042092E704242F66
:141F70000027D4D00FC006E413E00E94DF178BE08093E904E3
:141F840022242092E8042092E704242F02E0C4D08FC003E4C9
:141F980013E00E94DF178AC0209069042E82209068042C82C9
:141FAC00809167048F718A832224288220916A04042F0E94B4
:141FC0006706602F002379F40EE313E00E94DF17222420920D
:141FD400E9042092E8042092E704242F00279CD00FC008E331
:141FE80013E00E94DF178BE08093E90422242092E804209259
:141FFC00E704242F02E08CD057C005E313E00E94DF1752C0B9
:1420100022242092E9042092E8042092E704242F00277CD0D6
:1420240047C0042F88D244C000E313E00E94DF173FC0042F70
:1420380072D1602F242F6ED039C00AE213E00E94DF1734C0CD
:14204C00042F36D031C007E213E00E94DF172CC020906B04D7
:1420600033243986288620906A0433243F822E8220906904A5
:1420740033243D822C822090680433243B822A82209067049D
:142088003324398228822091660433270EE013E00E94DF179A
:14209C0085E08093E90480E28093E80422242092E704242F34
:1420B00002E034D02A960E94AB1608950E94B916C02ECC202B
:1420C40019F04FEA54E002C047E754E060916A04AA2413C06E
:1420D8008A2D883068F08FE18A1550F0CA014096EA2DFF2700
:1420EC003897E80FF91F008129D002C0002726D0A394A616B6
:1421000058F322242092E8042092E7042092E9042C2D0027E0
:1421140003D00E94B11608950E94BF16222311F0442701C0F5
:1421280041E0242E220C220C220C220C220C200E422D25BACE
:14213C008FEF84BB96980E94C21608950E94BF16402F8FEF29
:1421500084BB45BB97980000979A0E940F0B0E940F0B22241E
:1421640024BA0E94C21608950E94BF16222424BA97980000A8
:14217800979A43B30E940F0B0E940F0B042F0E94C21608956A
:14218C000E94BB16A02E40916A040091E904D6DF662703C03C
:1421A0000027D2DF6395842F81506817C8F32A2D0027B4DF8C
:1421B40022242092E9040E94AE1608950E94B916C02ECC20E4
:1421C80021F08091B204833031F0CC2031F480917A04833004
:1421DC0011F40C2D42D060916A04AA2432C04A2D5527473016
:1421F000E0E05E07E9F087E090E08417950744F040304507DF
:1422040071F04230E0E05E0769F01CC04C30E0E05E0781F087
:142218004D30E0E05E0781F013C000EF91DF12C00091E9041D
:14222C008DDF0EC0062F075089DF0AC00091E80485DF06C0FF
:142240000091E70481DF02C000277EDFA394A61608F4CBCFDF
:142254002C2D002761DF22242092E9040E94B11608950E9429
:14226800B916C02E60916A04AA2449C04A2D552740304507C0
:14227C00F1F04230E0E05E07E9F04030E0E05E070CF438C070
:142290004C30E0E05E07B9F04D30E0E05E07B1F04F30E0E06E
:1422A4005E07A9F04031E0E05E07A1F04131E0E05E07D1F0A9
:1422B80023C000EF45DF22C002E042DF1FC004E03FDF1CC07A
:1422CC0004E03CDF19C000E839DF16C0CC2021F00091BE0400
:1422E00033DF10C0009186042FDF0CC0CC2021F00091BD04C4
:1422F40029DF06C00091850425DF02C0002722DFA394A6160D
:1423080008F4B4CF2C2D002705DF22242092E9040E94B11690
:14231C0008951A930A930E94B71622970C84002019F04FEAAC
:1423300054E002C047E754E080916804807C86958695869577
:142344008695869586958983809168048F73E82E482F5527A0
:142358004330E0E05E0749F04330E0E05E074CF04F33E0E08A
:14236C005E0719F004C048E103C048E101C04427AA2420C03C
:142380006A2D77276030670769F06330E0E07E0771F06030F4
:14239400E0E07E0784F06A30E0E07E0749F00BC0042F045F03
:1423A8000150CEDE08C008E0CBDE05C002E0C8DE02C0002795
:1423BC00C5DEA3948A2D8C30E8F24427CE2CDD24C601833006
:1423D000E0E09E0751F08330E0E09E07B4F0C6018F33E0E04E
:1423E4009E0749F010C00C84088220916A042C50098124D004
:1423F80009C00C84088220916A042C5009811CD001C041E0FB
:14240C00442349F422242092E9042092E8042092E7040027D1
:142420000AC085E08093E90484E28093E80422242092E70431
:1424340002E022960E94B416229608950E94B716622FC02E4B
:1424480080916704807E21F48FEA94E05C0103C087E794E002
:14245C005C01CC2009F04CC0442747C0E42EFF24C7018030FF
:14247000E0E09E070CF43CC084E18E159F050CF437C002E072
:1424840010E097010E946B16F8018CE890E0E80FF91F059018
:142498001490F001099403E053DE28C006E150DE25C001E027
:1424AC004DDE22C001E04ADE1FC008E047DE1CC000E244DE3A
:1424C00019C0002741DE16C001E03EDE13C004E23BDE10C074
:1424D4000DE238DE0DC0F501058134DE09C0F501048130DE42
:1424E80005C000ED2DDE02C000272ADE4395461708F4B6CF7C
:1424FC008C2D8130C9F4442715C0A42EBB24AA2011F4BB200A
:1425100031F0C5018130E0E09E0721F006C003E013DE05C04A
:1425240006E110DE02C000270DDE4395461748F30E94B4161E
:1425380008950E94BB16A02E662703C013DE402F6395209059
:14254C006A046215C8F32A2D0027E2DD22242092E9040E9417
:14256000AE1608950E94BF16442707C00E940F0B0E940F0BE5
:142574000E940F0B43954835B8F30E94C21608950E94BF1609
:14258800402F07C00E940F0B0E940F0B0E940F0B4A9544238F
:14259C00B9F70E94C21608951F9313B30F930FB70F9301E001
:1425B0000F922F923F928F939F93EF93FF930E945A03FF91ED
:1425C400EF919F918F913F902F900F900F910FBF0F911F9148
:1425D80018951F9313B30F930FB70F9300E00F922F923F92AD
:1425EC008F939F93EF93FF930E945A03FF91EF919F918F9114
:142600003F902F900F900F910FBF0F911F9118950E94BB16BB
:14261400602F2697969A409168045527407E50704030450743
:1426280049F04030E0E05E074CF04032E0E05E0719F004C030
:14263C0041E010C044270EC085E08093E90485E28093E80495
:1426500022242092E70421E002E00E948E1084C0442321F0B4
:142664002090AF04222031F0442391F420907704222071F4DE
:1426780085E08093E90485E28093E80422242092E704242F4D
:14268C0002E00E948E106AC0A0906704BB24C5018231E0E03B
:1426A0009E0769F08231E0E09E0774F0C5018532E0E09E07CA
:1426B40009F008C0042F5AD055C08CD0042F0E945E1050C030
:1426C800262F332707E913E00E94DF172090690433243D82A1
:1426DC002C822090680433243B822A82209067043324398233
:1426F00028822091660433270AE813E00E94DF1720906D0419
:1427040033243D822C8220906C0433243B822A8220906B04FE
:1427180033243982288220916A0433270AE813E00E94DF17FB
:14272C002090700433243B822A8220906F04332439822882D6
:1427400020916E04332701E813E00E94DF1785E08093E9042F
:1427540080E28093E80422242092E704242F02E00E948E10B8
:1427680026960E94AE1608950E94BD16402F442319F06FEAF1
:14277C0074E002C067E774E0FB0105850E94A410FB01048530
:142790000E94A410FB0103850E94A410FB0102850E94A4102C
:1427A40000270E94A41000270E94A41002E00E94A4100027C8
:1427B8000E94A41022242092E9042092E8042092E704242F44
:1427CC0000270E948E100E94AB16089520906704209266045B
:1427E0002090680420926704209069042092680420906A0453
:1427F4002092690420906B0420926A0420906C0420926B0432
:1428080008950E94B4150E94B7162A97002411241F820E82FA
:14281C008FC1EE89FF898081853259F00081EC89FD890E943A
:14283000D6168E819F8101969F838E837AC1EE24FF244AEE07
:1428440054E060E28E899F8901969F8B8E8BE82FF92F208012
:1428580033243D822C82822D932D8835E0E09E0709F48BC0CF
:14286C0088E582159305A4F08C819D818534E0E09E0709F4E2
:1428800053C18534E0E09E070CF443C08C819D818335E0E06C
:142894009E0709F4E2C03BC08C819D818F36E0E09E0709F49F
:1428A8006CC08FE690E02C803D8082159305DCF08C819D817C
:1428BC008336E0E09E0709F4B6C08436E0E09E0709F42EC06D
:1428D0008536E0E09E0709F427C18636E0E09E0709F422C1EE
:1428E4008936E0E09E0701F112C08C819D818337E0E09E07AE
:1428F80009F4E0C08537E0E09E0709F43EC08837E0E09E07EF
:14290C0009F439C000C0EE89FF890081EC89FD890E94D616F8
:142920008E819F8101969F838E8303C1888D998D0296998FEB
:14293400888FE82FF92F32972080318039862886822D932D43
:142948008030E0E09E0774F48E2D9F2D8860E82EF92E6DE203
:14295C00822D932D809590958F5F9F4F998788878AE090E0D9
:142970009983888328853985042F152F0E94251753C0888D44
:14298400998D0296998F888FE82FF92F32972080318039862A
:142998002886EE89FF898081853759F48AE090E09983888373
:1429AC00222D332D042F152F0E947E1737C0EE89FF898081C3
:1429C0008F3659F488E090E09983888328853985042F152F10
:1429D4000E947E1727C080E190E09983888328853985042F3B
:1429E800152F0E947E17EE89FF8980818835C1F48AEE94E002
:1429FC00C82ED92E0EC0EC2DFD2D008111270E94C817EC2D66
:142A1000FD2D00838C2D9D2D0196C82ED92EEC2DFD2D20800B
:142A2400222069F78AEE94E0C82ED92E57C0888D998D029629
:142A3800998F888FE82FF92F3297208031802A82022DEC89A2
:142A4C00FD890E94D6168E819F8101969F838E836AC0888D2A
:142A6000998D0296998F888FE82FF92F3297A080B1806D326D
:142A7400E9F40DE2EC89FD890E94D6168E819F8101969F8311
:142A88008E8312C0EA2DFB2DC895002DEC89FD890E94D61605
:142A9C008E819F8101969F838E838A2D9B2D0196A82EB92E5A
:142AB000EA2DFB2DC895002049F73BC0888D998D0296998F20
:142AC400888FE82FF92F3297C080D180CC2031F4DD2021F42B
:142AD80086E094E0C82ED92E6D32E1F40DE2EC89FD890E9413
:142AEC00D6168E819F8101969F838E8311C0EC2DFD2D00815C
:142B0000EC89FD890E94D6168E819F8101969F838E838C2D86
:142B14009D2D0196C82ED92EEC2DFD2D2080222051F705C01D
:142B280083EA93E0C82ED92ED7CF8E899F8901969F8B8E8BFD
:142B3C00EE89FF892080222009F06BCE0E811F812A960E94E1
:142B5000B41624960895A02FB12FE22FF32F01900D9200201E
:142B6400E1F708953A932A931A930A930895222321F0159577
:142B780007952A95FACF08956894DA92D12E04C0E894DA9275
:142B8C00D12ED32617FF04C0109500950F5F1F4F37FF04C053
:142BA000309520952F5F3F4F0E94E115D7FE04C01095009520
:142BB4000F5F1F4FD9900895689401C0E894EA92FA928A93CD
:142BC800EE24FF2480E1000F111FEE1CFF1CE216F30618F006
:142BDC00E21AF30A03958A95A1F716F40E2D1F2D8991F99069
:142BF000E9900895E89401C068942FD0CC2408C0E89401C08E
:142C0400689429D037FD53D0B7FD5AD0772488249924AA24C0
:142C1800BB2441D0C1F044D0B1F0E8E2000F111F221F331FB6
:142C2C00771C881C991CAA1CBB1C88169906AA06BB0628F045
:142C4000881A990AAA0ABB0A0395EA9559F726F4082D192DC6
:142C54002A2D3B2D13C07A928A929A92AA92BA92CA92EA9325
:142C68008A939A93AA93BA938B859C85AD85BE85C32E0EF0EF
:142C7C00CB260895C7FC17D0B991A99199918991E991C99071
:142C9000B990A99099908990799024960895E02FE12BE22BE4
:142CA400E32B0895E82FE92BEA2BEB2B08950095109520958F
:142CB80030950F5F1F4F2F4F3F4F089580959095A095B0950A
:142CCC008F5F9F4FAF4FBF4F08950A921A928A939A93029F3C
:142CE000C001129F900D039F900D8C0199918991199009907F
:142CF40008950E94DF167F920E94F81639F177240E94FE165C
:142D080019F48C019D0120C0089FB02CA12C289F902C812C1F
:142D1C00189FA00C911C871C099FA00C911C871C199F900CF8
:142D3000811C0A9F900C811C389F800C299F800C1A9F800C14
:142D44000B9F800C0B2D1A2D292D382D7F900C94ED16E2E097
:142D58000C94C316E4E00C94C316E8E00C94C316EE270C94BB
:142D6C00C316FA92EA92DA92CA92BA92AA927A936A935A932B
:142D80004A930895E1E049915991E0FD089569917991E1FDE4
:142D94000895A990B990E2FD0895C990D990E3FD0895E990D8
:142DA800F99008950A92C8950A923196C895F02DE991099008
:142DBC0009948A929A92AA92BA92EA938A939A93AA93BA9345
:142DD00089859A85AB85BC850895B991A99199918991E99172
:142DE400B990A9909990899024960895EE27E02BE12BE22B87
:142DF800E32B0895EE27E82BE92BEA2BEB2B08950F920990DE
:142E0C00002031F0000F111F221F331F0A94F8CF0F900895FE
:142E20000F920990002031F036952795179507950A94F8CFEF
:142E34000F900895822F932F01968E7F800F911F082F192F79
:142E480008950E94B716C22ED32E402F512FA297ACA4BDA4A0
:142E5C008C2D9D2D8030E0E09E0744F461E0809590958F5F29
:142E70009F4FC82ED92E01C06627222429A28C2F9D2F819666
:142E8400E82EF92E8E2D9F2D0197282E392EE82EF92E2A2D8D
:142E98003B2D0C2D1D2D0E94C015E02FF12F88E194E0E80FC1
:142EAC00F91F4080E22DF32D40822A2D3B2D0C2D1D2D0E9465
:142EC000C415C02ED12ECC20F9F6DD20E9F6662359F08E2DF4
:142ED4009F2D0197282E392EE82EF92E8DE2E22DF32D8083EB
:142EE8002E2D3F2D042F152F0E94AB15A2960E94B4160895F5
:142EFC000E94B916A22EB32EC02ED12EA2976AA57BA5222405
:142F100029A24C2F5D2F4F5D5F4F842F952F0197282E392EB5
:142F2400482F592F262F372F0A2D1B2D0E94DE15E02FF12F9C
:142F38008DE394E0E80FF91F4080E22DF32D4082262F372F26
:142F4C000A2D1B2D0E94E015A02EB12EAA20F9F6BB20E9F63B
:142F6000242F352F0C2D1D2D0E94AB15A2960E94B116089583
:142F740089EB90E0202E312E280E391EE22DF32DC895002D72
:142F880011270270107008950E94BF16402F512F042F152F91
:142F9C000E94BA170030010739F0042F152F015610400F5BC5
:142FB0001F4F02C0042F152F0E94C21608950E94B4150E9442
:142FC400BF16229722E030E00C2F1D2F0C5F1F4F0E941C1724
:142FD800402F512F598348832C813D8106EB10E00E94051448
:0E2FEC00402F512F22960E94C216249608955F
:00000001FF
