S00E0000647269766572732E6865787F
S219EC00005F4C5A5F0002DEECBD5F5043494EF900EC0386BD0455
S219EC001506096EBD04060B1CBD04062E18BD0406300CBD0406A3
S219EC002A317ABD04060C06BD04060E88BD05068E4E754E714EC9
S219EC003F71BD040C11ECBD070CBD0606BD0C0CBD050601010048
S219EC005415000707DB001400004E754FEFFFF448E73830428443
S219EC006947EF00143F3C00074E41548F16000C00000D67640C4D
S219EC007E00000866164A846F1270083F003F3C00024E41588FFF
S219EC00935384538B60D410030600FFD00C0000096214100348B0
S219EC00A880BD0A200203000F6022BD0520BF0C00002562A8BDBC
S219EC00BD12200603000916C35284608C428153846B1041EF0019
S219EC00D214E989101849C0828053846AF420014CDF0C1C4FEF88
S219EC00E7000C4E7548E73020262F00100C79000121025B0666F0
S219EC00FC424A7921025AF0663A243804324AB921010000660AC5
S219EC011123FC21000000BD040C2039BD04062200D2830C81BDFA
S219EC0126040A620823C1BD04086018D68221C304322002600E34
S219EC013B70033F002F033F3C00444E41508F4CDF04BD0668381B
S219EC0150362F001A48780012618A2840588F42804A8C673028C7
S219EC0165BC58425241297C5F5043490004397C4EF9000C296F27
S219EC017A001C000EF4F847EC000C2F0B3FBD044A054E4D508F27
S219EC018F294000084CDF1CBD044E78000161FF00026B1C588F5A
S219EC01A44E752F032F02342F000E02427FFF360248C320030294
S219EC01B98000004000660000A00242FF3F004200203639210204
S219EC01CE5BB20C4300016650320248C17007C08166464A79BDF7
S219EC01E30581743E2001BD04323F180C800000010867446E0CB9
S219EC01F84A80673E7218B2806738601CBD04160C18672E6E0AB3
S219EC020DBD05201067246008BD040A1418671A743860167007F5
S219EC0222C08257807202B280640A743C4A436704064200F73092
S219EC02370248C07208C2807610C08367064A81660C60044A8159
S219EC024C670600420100603E0242FEFF60382F0361FF000033C0
S219EC0261F82040588F4A806606343C01336022BD07830CB26691
S219EC0276187007C68066120C680400000262080C6803000004D6
S219EC028B6302743830422008241F261F4E7550726573732061E9
S219EC02A0206B65792E2E2E0D0A00002F0A2F02203C00EC02D6C4
S219EC02B52F003F3C00094E415C8FBD08847C241F245F4E75BD0B
S219EC02CA04223F3C00224E4E548F7210D28023C121025B10594D
S219EC02DF8023C021025BAC7001BD05844E0E4E4E588FBD041223
S219EC02F45AF470FF2F002F00BD054E104E4E4FEF000EBD052AF5
S219EC030918BD064E4352542C4E4F4E4500BD0409435254BD050B
S219EC031E08544D445300BD0405BD0512BD0509BD051300BD069C
S219EC033386143F3C0C7901FF00E80000620841F800006000053A
S219EC03489E203C2102C8180480210000002F0042A74879BD0473
S219EC035D0A61FF0010A0C46100FF4C33EF004621025B16427959
S219EC037221025B0C4FEF000C42407812263C21025B282F033F2C
S219EC0387043F00BD0581382EBD0581220C0C790002BD042E6637
S219EC039C10BD04305AF033FCBD068560600EBD060A5AF0BD05F2
S219EC03B14806BD050604BD05060A428742459BCD72FFBD0582ED
S219EC03C6102423FC21025B3C2102C19461FF000171EABD0581AD
S219EC03DB74B4BD042AC1A2BD0554F2BD053614BD0506B0BD0558
S219EC03F006B2700E2F072F003F053F3CC60BBD06810833BD049C
S219EC04053608487AFF0748792102C2C847F900EE5F824E93305D
S219EC041A39BD0418508F6D30EBC0040E53807204B2806514415C
S219EC042FF900FC00CC2F300C00BD062E4E93508FE9F901812165
S219EC0444025B09BD064A60BD0681320833FCFFFE2102C3CEBDC4
S219EC0459058110A0BD068154C3DCBD040EC3C8BD070EE8BD055A
S219EC046E1CBC42B921029564BD050668BD0785703A3F3C000BF0
S219EC04834E41548F4A40672EBD08841C024000FF3A40BD0B1AE0
S219EC0498BD098932BD0A1466EC4243700642842F042F003F034B
S219EC04ADBD0A816672FFB280670C7244B24D67067264B24D6628
S219EC04C21C3A3C143C487AFE11BD088148BD068114C1A2508F59
S219EC04D7603A3A003639BD040C66307005BD114A02C08166182B
S219EC04ECBD078324F2BD0783360ABD083E99CC76004643300C83
S219EC0501524CBD068862012CBD05360828006D0001B847EF00F8
S219EC05163042A342402F0B3F002F043F3C0130BD06542C006D40
S219EC052B00009CBD05817CB2660000927056B04D6700008A729F
S219EC054076B2BD0408824A87667C47F900FC8E3C4AB9BD0406BF
S219EC0555676E222F002CBD068814FFFFB09366567010E0A9B237
S219EC056AAB0004664CBD07824210203C00FC00BD068614BD051B
S219EC057F8662BD078122AC4878003C61FF000036C02F0B2F04BC
S219EC059461FF000212064FEF000C4A806D08BD07814EB2BD0557
S219EC05A98318AC600847EB001C4A9366924A866D0000DCBD079D
S219EC05BE5A0000D24A87670000CCBD078542B06E0000C0700826
S219EC05D37628D68F2F03BD0E81584A806D0000A4202F00280CEB
S219EC05E86F0C03002866000096E0887202B287663C0C80000C1C
S219EC05FD03106600008447F900FC9C944AB9BD04066774BD0F1E
S219EC0612815A0ABD08815A673ABD07810EDE6050BD053C206657
S219EC062748BD043A9D8ABD043A9D8A673ABD0F3A22BD0982141C
S219EC063C18BD08816A6378508F4A806D1052BD058612BD0981FC
S219EC065160C64A866D1ABD05815E1466120CAF12345678002CFE
S219EC066666BD08820E144A846C00FE2A52877202B2876C00FE6D
S219EC067B1E42B921025BBD0585365B00BD0506B8BD053CB06775
S219EC06900E42A7487AFA0661FF000394D6508FBD068350670002
S219EC06A5014ABD058576CA33FC07FF2102C3CC23FC00EC00701B
S219EC06BA2102C19CBD080AC2C4BD0914B8BD080AC3E4BD090A8D
S219EC06CFD8BD058C1C06665A203C00007E003F03BD058356BDA9
S219EC06E4058D3C28000684000000FF70FF4600C880BD0472C1A0
S219EC06F9A2670CBD057A0A66046100FA94700242433FBD0583CC
S219EC070E182F04BD058D28BD058A20BD10841E487900FC0D90EE
S219EC07234878002E47FAF8F64E93BD05884CB823FC564944582A
S219EC073821025AF8726423C121025AFC4879BD040E61FF000122
S219EC074D69B6BD05836245661642A761FF000047063A00588F68
S219EC0762004500044A4066027A3C30452F086100F9BD05164280
S219EC07778076033F053F03BD078B24BD078104BD07845016BDD6
S219EC078C043E2A462005028000007E006706BD04102D1C487948
S219EC07A100FC1EC84878000ABD07810E00BD0782520A670CBD81
S219EC07B6078A0EBD05816E30BD05826620084CDF3CFCBD069035
S219EC07CB3275736200747265650056444920696E69742065724E
S219EC07E0726F720D0A0043544C3A54494D454F5554004E56FFC2
S219EC07F5F848E73820BD088A6EBD0589700667BD088376044A8E
S219EC080A406634BD0B886C28BD12886CBD168900BD088C38631F
S219EC081F00013EBD08840200902F392102A184BD0406C18C6194
S219EC0834FF00016B98508F4A806776487AF98FBD04165BB420E5
S219EC0849BD042CB420502F10BD05269461FF00037CAC4FEF0014
S219EC085E104A80674EBD081E20502F28002461FF001014E84883
S219EC08737900FC2496487800226100F742BD058224BC23FC454C
S219EC088864444921025B1C23FC00FC5D3E21025B2048BD043C46
S219EC089D1CBD04766802BD04506020BD07811818203C00EC0941
S219EC08B251BD128F06BD078550564284263C2102C3F04A39BD5E
S219EC08C704066722BD059234BD0684307AFEB4BD05901C0258A5
S219EC08DCF650BD05901A6100F82878014A8466202D7900FC0074
S219EC08F1E0FFF8BD0508E4FFFC486EFFF848780002BD042EF231
S219EC0906F4BD07834614671E4ABD05863C6616BD0A847C61005F
S219EC091BF67ABD06847A508F4CEE041CFFE84E5E4E75BD0890C1
S219EC093034BD09825A26203C00EC0B18BD0A8138BD078130065F
S219EC0945BD0462CD2ABD088342BD068F7E206F0004429042A8E9
S219EC095A0004216F00080008216F000C000C7010214000104218
S219EC096FA8001442A800184228001C4228001D4228001E4228C5
S219EC0984001F42A80020BD0478446973617373656D626C65207F
S219EC09996D656D6F7279202868657829203F20002020202020EA
S219EC09AE2020000D0A4C697374206F6620636F6D6D616E6473E9
S219EC09C33A000D0A20284429BD113DBD05184D29BD06496475E8
S219EC09D86D70BD0511502961746368BD08230048E7383C202F76
S219EC09ED0020120049C17464B48167466D12740DB481672E74D0
S219EC0A023FB4816700021060000258746DBD050C486D0C7468FB
S219EC0A17BD040A01FA600002427470BD0516326000023626398A
S219EC0A2C21025B2472FFB283661E600002BD06823490BD0A8244
S219EC0A41346100F402260074FEC682701023C021029D1448794C
S219EC0A5621010050BD050640BD0506086100FEC24FEF000C786D
S219EC0A6B07428241F9BD041811BC002028005282720EB28264A6
S219EC0A80EC42392101004F42824BBD041C504235BD041A707F1B
S219EC0A95B08264EE23C32101000CBD050608BD074CFF00004F95
S219EC0AAA7A26004282588F49BD0430D019BD084C19B2826CBD51
S219EC0ABF064CEABD05973E0824039480E2827205B2826C02742A
S219EC0AD4052640244C538270FFB082674A487800104280101365
S219EC0AE9E188802B000108C000102F00BD05603061FF000254E3
S219EC0AFE7414BD045A31BD050632BD050633BD050634528A54FD
S219EC0B138B4FEF000C51CAFFBE4242538264B6BD044A2FBD04C1
S219EC0B286E0CBD0B4034BD0424700DBD0A992E700ABD0A0C478D
S219EC0B3DBD044A302F0BBD088242703ABD0B2820BD0A0C2F0CEC
S219EC0B52BD0A8626FDDA2F0BBD045A51A84282508FBD068244D9
S219EC0B674ABD047640670E17B02800280052824A30280066F26D
S219EC0B7CBD065E42332800BD0B62BD0C560DBD081653846A0043
S219EC0B91FE7023C321025B246040BD058358B6BD0A8358BD0511
S219EC0BA610CABD0F10E2BD0F10F3BD0A1042806008BD08945236
S219EC0BBB4CDF3C1C4E754E753A20000048E72030246F0010BDF2
S219EC0BD00C841E0188BD050678BD0506406100FCA442824FEF9D
S219EC0BE5000C41F9BD0416BD12841C0187BD068438018842307C
S219EC0BFABD0B841CCA21010144BD0506BD058468014061FF0045
S219EC0C0F004D5E428258BD0582220208BD094ABD09841A022210
S219EC0C2422BD04504024009481E2827005B0BD06841A41244887
S219EC0C39538272FFB2BD1B841A016861FF0002525A14F92101A1
S219EC0C4E0169BD05066ABD05066BBD05066CBD1A841A0144BD26
S219EC0C630B401ABD060CBD05842CF045BD06962492487AFED60B
S219EC0C78BD0612BD059636084E93BD040E02BD068572F04E93CE
S219EC0C8D4FEF00202EBC00EC0BAEBD063E4E924282508F43BDF0
S219EC0CA205822E4ABD0462786714BD0582206811B1BD07840C55
S219EC0CB731280066ECBD0714BD058206423028012FBD0952BDCB
S219EC0CCC0A8306BD076010203CBD040C4CDF0C044E7500002014
S219EC0CE14C4152474555522048415554BD0408494E464FBD07F0
S219EC0CF6892BBD0606434F554C45555253000036353533360000
S219EC0D0B41414141BD0404BD0808BD06060042424242BD0404B6
S219EC0D20BD0808BD06060043434343BD0404BD0808BD060600D0
S219EC0D3544444444BD0404BD0808BD06060045454545BD040474
S219EC0D4ABD0808BD06060046464646BD0404BD0808BD0606009A
S219EC0D5F30303030BD0404206F637465747320BD040B487ABDEC
S219EC0D7405074D487A004368616E676500416E6E756C65005461
S219EC0D89657374005842494F5300205749445448202020484902
S219EC0D9E4748542020BD1481744C4F5253BD0A616279746573D7
S219EC0DB320BD1161616E63656C0020203220202000202034BDE5
S219EC0DC806073136BD0507323536BD040736354BBD06154DBDEB
S219EC0DDD0516BD058102BD050A56455341BD0631445249564547
S219EC0DF252BD040A4D4F4E2E31202000BD041C00BD061700BDE1
S219EC0E070514004E56FF6C48E73F3C42AEFF7E42AEFF82426E85
S219EC0E1CFF7442B921025CBD050694C4BD059A0E54BD050CD85F
S219EC0E31BD0506CCBD051E78BD050CD42F3C5F50434961FF0027
S219EC0E46016008588F307CFFFF4A8067000D00BD07984216BDFD
S219EC0E5B0588344E54BD051A0C8000FFFFFF63000CE248792196
S219EC0E700294BEBD0506DCBD04069552BD050CBC61FF00038C5D
S219EC0E857C33C0210294C861000CC64FEF001041F80000BD04FE
S219EC0E9A540CACBD0524E0BD0506C8487900FC062A61FF0000A3
S219EC0EAF187C3039BD04124FEF000C6E0C610010B4BD069E26FD
S219EC0EC40C7CBD042A5C004878000130402FBD058B7618DCBD85
S219EC0ED9058A56FFBD05894C584E4E588F3D40FF7242813200DA
S219EC0EEEBD06972E4000676020792102C3D02068018AE9C1144F
S219EC0F038B7021B0816D04720160407022D0B900FCA43CB081EF
S219EC0F186F0A760223C3210295586038BD05932CB20C400001D4
S219EC0F2D66104AA8086C670A700323C0BD051C1C0C400002BD16
S219EC0F4204160098670A720323C1BD051606BD05825058BD04A2
S219EC0F576694CC0068004000380268FFF7003A4282342EFF72BD
S219EC0F6C7607C6822D43FF6C2F0361001524486EFFAC486EFFFD
S219EC0F81A82F02610016702C0074044FEF00102639BD043C203C
S219EC0F96065880204372184C021800224122025281B480660828
S219EC0FAB00700001980A60060270FFFE980A24017009B0816C7B
S219EC0FC0D442A7610012182F2EFF6C610012F6BD067C203921F9
S219EC0FD502955843F900FC01E821710C0001D426680174508FB1
S219EC0FEA362EFF72BD05A4485B4E4E588F487800082F002F0B6F
S219EC0FFF45F900EC2A684E92177C00200008487800032F2EFF76
S219EC1014A8486B0010BD071413BD0714AC486B0017BD07141A40
S219EC10294FEF0024BD066E4A866D0E0068000501880268FFF78D
S219EC103E018A600C0268FFFA018800680008018A42AEFF7A70F5
S219EC1053022D40FF764AAEFF7667000096BD07A536038A567651
S219EC1068A0D68E74A6D48E2F024BEEFFA42F0D49EEFFA22F0CA6
S219EC107D2F032FBD058206BD04248924204236502F0B34552F56
S219EC10920A32542F09306EFFA02F082F0B2F0A2F092F08BD0578
S219EC10A798140389244FEF003C224232512F093A552F0D3854F7
S219EC10BC2F0C34BD04280A4878000842A7BD0B4E4A4FEF001C61
S219EC10D17002B0AEFF7666082F03610010DE588F42AEFF764257
S219EC10E682BD0D28063D40FF8E508F0C40FFFF6C0A02407FFF21
S219EC10FBBD04107401306EFF8E55887211B288650009A2303B69
S219EC11108A064EFB0002002E099801440144BD0404BD04040219
S219EC112506026802DA035403D2099804C205120522084C2C0225
S219EC113A760122836000040A45EEFF9A2F0A486EFF9848780013
S219EC114F02BD0A7488DEBD06824E3D680044FF9C3D680046FFF6
S219EC11649E2DBD0412D8FFBC426EFFC0306EFF6E52483D48FFBC
S219EC1179C2426EFFC4486EFFB034522F0A326EFF982F09486EF2
S219EC118EFFBD05866088BC4FEF00204A4067000904BD06876268
S219EC11A3306EFFB653882D48FF6C2F08610010D6346EFFA62F44
S219EC11B80A306EFFA42F08326EFFA22F09BD0A822ABD0F811066
S219EC11CD1EBD044C43F900EC28AA4A866D00088670304C0068D8
S219EC11E2002046D1FC21025C803A2800020245FFF82F2EFF6C6B
S219EC11F74E917CFF4282588F263921025C74B6826F000322418E
S219EC120CF9BD042643BD04067C221041E8003070F8C28042807F
S219EC12213005B0816700FEF0528243E90030B6826EE2600002F2
S219EC1236F44ABD0589166D00084C4A866D1072304C016800BDF1
S219EC124B05427C42B06800486EFFA061000ED248780001BD0468
S219EC126004BD041042A7306EFF8E2F08BD06813245F900EC23A5
S219EC1275FA4E9261000DB4326EFF8E59493D49FF8EBD058252FF
S219EC128AC443F090002C0970304C0608BD075472012181080073
S219EC129FBD0987280501884FEF001C4A82671EBD0E62BD058F1D
S219EC12B424084E924FEF0018600002DABD041A42A7BD141C07DE
S219EC12C9944ABD0582706700078ABD11440ABD0E812420BD0428
S219EC12DE0EC42600538323C3BD040ABD04426CBD05883C94C43E
S219EC12F3BD07816A48BD0F6A0A6000016045EEFF90486EFF96F0
S219EC1308486EFF9447EEFF922F0B2F0A61FF00038748486EFF76
S219EC131D8EBD0583440CBD0A8340868E4FEF0020BD066C322E1C
S219EC1332FF8EB2536C045C8060025DBD05A96094C4BD0872249A
S219EC1347BD0583345D8220024680D0809180C480B4BD05186CC1
S219EC135C6E60664878000345F900EF9EDE4E92BD0781560C481C
S219EC137178000BBD0A66870A3D40FF8E487800024E92BD084A7A
S219EC13864FEF0018BD0A4E302EFF8E48C04C0028004C7C28029D
S219EC139B000003E922024C7C1800BD040A4A806702528223C2A5
S219EC13B0BD0A817A0D4E588F60000646BD1881166700062ABDC7
S219EC13C51182600DBD16826052BD0B8260B4836C06BD0C680C8B
S219EC13DAE6BD0F8262BD07444E92600000EA61000B6EBD068B1D
S219EC13EF347007C0822D40FF6C2F0061000D98306EFFA6BD05F9
S219EC14048638A4BD058638A2BD05864AA02F08BD12863E84E0FE
S219EC14194FEF001C2EAEFF6C61000F38BD0C8B6C10842C00BD47
S219EC142E059E70866D4A740428BD06812CBD078B769084BD2999
S219EC14438B78D2BD0C853E600CBD060EBD068A78BD0781620495
S219EC14584878000170084A866D0242802FBD058644BD0785361A
S219EC146DBD0681260009F04FEF001C600004D8BD093EFE018AF3
S219EC14824A866D36BD06862C2040BD06876A30280002B06EFFF1
S219EC149772671E7201BD058D6A64BD058E645F4E4E588F33C03F
S219EC14AC0000A4EA3D7C0001FF7476012D43FF7A60000488BD76
S219EC14C10B50A260000318366EFFA62F0B346EFFA4BD05893268
S219EC14D6A2BD108B484878000361FF0003835A4FEF0020429794
S219EC14EBBD05824238BD088C28842E72012D41FF76426EFF808D
S219EC1500262EFF7EECC300102D43FF7EBD05901CE03D40FF821C
S219EC15153DBD0470E2FF8442A748780100BD053456326EFF84E4
S219EC152A2F09202EFF827210E2A02F00306EFF802F08202EFFE0
S219EC153F7EBD040EBD061ABD050ABD0914BD068C4E82D64FEFA3
S219EC1554003430BD05911026085283BD050AE2200852804C00D3
S219EC15693800EBF9000D21025C08BD040CBD0EB360264042AECB
S219EC157EFFC84A80664E486EFF8C486EFF8A486EFF88486EFFB0
S219EC1593864878000442A7BD058648B84E92486EFFF6486EFF97
S219EC15A8F4486EFFF2486EFFF04878001142A74E92302EFFF016
S219EC15BD7610E7A8306EFFF2D0882D40FFDC4FEF00306004BD55
S219EC15D2040A36BD05816A300352403D40FFE034BD040EE230EC
S219EC15E742BD058C0EE23200E8413D41FFE40240000F670652B2
S219EC15FCBD050C426EFFE63D7921025C08FFE8426EFFFA426E09
S219EC1611FFF8426EFFF2426EFFF04A8B661E302EFF8A53BD0448
S219EC16264CFC3D40FFF4302EFF88BD050EFE3D40FFF660103D34
S219EC163B43FFFC3D43FFF43D42FFFE3D42FFF643EEFFDC2F09C4
S219EC165045EEFFC82F0A7EF0DE8E2F0748780003BD058218C86A
S219EC16652F084BF900EC2C024E954FEF0014BD0C927E3A00386A
S219EC167A7CFFFF382EFF72028400007FFF4A866D14BD0E84581D
S219EC168F281002447FFF303C564E760ABD07A83C0CBD0DA83C67
S219EC16A4EC2A52BD059C42264E4E5C8F3F05BD0B93588E43EED5
S219EC16B9FFC8BD058114DC2F0ABD0E8110BD06810A4A8B670A08
S219EC16CEBD059D6249BD059C7E6EFF80202EFF7EECC000102D8F
S219EC16E340FF7E32BD06843A41BD0A843ABD0A842E7610E6BD29
S219EC16F80D842EBD040EBD061ABD050ABD0914BD08853480A637
S219EC170DBD068534487801BD05852E81DC42A7BD06844A81D2FA
S219EC1722BD07086EBD0B8610BABD06811E6600016270012D4066
S219EC1737FF7A600001582C02720122816000FBECBD0D901E1364
S219EC174CBD0A885080C0BD08901E01DCFF9C3D6801DEBD0690F6
S219EC17611E9554BD06901E36392102955A52433D43BD0E9020F9
S219EC1776306EFF982F08BD089020809CBD08902000E4BD0C90BE
S219EC178B2023C82102955822BD056245BD05943623728C000104
S219EC17A0D4BD068970BD068738306EFFA2BD050CBD0A902E138C
S219EC17B52F09BD04567FF44FEF001CBD09902A5CBD2C9028FA9B
S219EC17CAFABD1F9028E6BD0C9028FACCBD0646BD088A503F2E49
S219EC17DFFF72426761000B303D40FF8E4FEF00106D00FAA83CAB
S219EC17F40048C66000FAA04AAEFF7A6700F58ABD28887E7EDC4B
S219EC1809BD0A887E7FBABD08845061FF00000C486100043830B9
S219EC181E6EFF74508F20084CEE3CFCFF444E5E4E7548E7383E13
S219EC1833BD0698542C68018A263C000001E078033F04BD0A8891
S219EC184816BD058E6CCC42814A80670003EE2F03487900FC0325
S219EC185D2A2F004BF900FCA5A2BD05852C0C763B46BD11345CD1
S219EC187278670003B0BD063002662F004E952F3C5F414B50616A
S219EC1887FF0001527A2040BD07AB3200009A20280004E0BD0506
S219EC189CBA7667087407B48066000086BD05835CD0706C3F047C
S219EC18B1BD0AAF44BD05810AD46700035A4878006C42A72FBD91
S219EC18C605B854847042844FEF000C2679BD041E49F900FC004B
S219EC18DBE82F344CBD041C023EC4588F52807603BD0CB00A27B3
S219EC18F0804C0067000316BD0424BD058512D42F30BD062E3F05
S219EC19052C508F5284761AB68464B2600000867001BD0572D0C0
S219EC191A766CBD0E8A28BD08810802D2BD0C810883E8BD10813B
S219EC192F080154BD0981083CBD188108028EBD1281083EA45052
S219EC19448F5284721AB28464B24284BD058554D4BD04225C7874
S219EC1959201020B10C002028000421710C00000420280008BD80
S219EC196E050A08528441E8001C7406B48464DA428424BD05861F
S219EC19830876184C0438002243428030323806307CFFEBD1C052
S219EC19987009B0886550BD0997782600260036004800480014E8
S219EC19ADBD0404BD0410203238BD068F0CD425B00C00380C605D
S219EC19C222701C4C320800380CD0BD059E5A600E700EBD06105E
S219EC19D7068000FC02582580980CBD06867872184C0418002012
S219EC19EC41BD05891CBC34318810C5C1338288103039210295A0
S219EC1A015236318812C7C033838812C3F1881433818814C1F163
S219EC1A16881633808816303188087220C08152844A806700FF11
S219EC1A2B445469002A52690100526901185269011A5569011E47
S219EC1A405269014859690162237CBD0474015C5869017A596948
S219EC1A5501DA76574603BD13831ED867000134BD06847C050AE3
S219EC1A6A2F00BD068526BD058126D8BD058C7CBC32BD05811489
S219EC1A7F45F8000047E9000C0C6B001CFFFA660C201341F9007D
S219EC1A94FC01C026B00C003631A810C7C23383A8103031A8127C
S219EC1AA9C1C13380A8123631A814BD0514143031A816BD051446
S219EC1ABE163031A8087620C08345EA001847EB001867B276788A
S219EC1AD3BD1281129554670000A248780078BD058114B2BD08B3
S219EC1AE8811426BD058A02BD0C811443F8000045EB000C0C6AA4
S219EC1AFDBD07811412BD058114D824B00C00204B30339810C132
S219EC1B12C23780981036339812C7C13783981230339814BD05DC
S219EC1B27141436339816BD051416303398BD05811643E90018F5
S219EC1B3C45EA001867B032BD06BD5801B08967087202B289677C
S219EC1B510A60164AAE086C6616600E4AAE0098660E60066114D9
S219EC1B664281600800680008006A720120014CDF7C1CBD06C496
S219EC1B7B5ABD059512CC670ABD058540BD058D12BD04125C78D5
S219EC1B90BD0C12BD059840D467304283BD06844020303C00BDDA
S219EC1BA50C205283701BB0836EE2BD054CD4BD0E4A94D8BD10FB
S219EC1BBA5C9554BD0C12BD09C47C30206F0014246F0020326FD8
S219EC1BCF001A362F002A342F002648C27001C082320948C14A93
S219EC1BE480670E70184C00180000700001180A600CBD060E0248
S219EC1BF970FFFE180A7008C480BD052682BD0B2608BD0D26F754
S219EC1C0E180A4A43672A366A00062F0B366A0004BD0506022F13
S219EC1C230B3452BD068C3632492F09BD058A540379BE4FEF00DA
S219EC1C381C4CDF0C0C4E754E56FFF8BD058D76FE45EEFFFCBD3B
S219EC1C4D050AFA486EFFF8BD04287A6ABD05896C5266E0246E2D
S219EC1C62FFF44E5E4E752F0A226F000822BD069822814A816EEF
S219EC1C77027201BD068E1E3028011E48C0244094E80136200AC3
S219EC1C8C4C390800210294C44C41080031400132346900062F3F
S219EC1CA10A34690004BD0506022F0A32512F09BD078D4C0BBD6F
S219EC1CB6078116284FEF001C245FBD058B5C00BD06642601701E
S219EC1CCB05B0816D027206BD06663428011E3002C1FC00062835
S219EC1CE0004C41480422047007B0846D0272083141013622039D
S219EC1CF5BD088114300248C0224092E801362009BD10810C4C73
S219EC1D0ADF00BD07841C262F00107404347C00BD05A51E94CC1E
S219EC1D1F3030A80A7201C0816718BD0699222F0342A73242BDAF
S219EC1D3405823600FE3E4FEF0018528245EA00187009B0826C28
S219EC1D49CCBD06835ABD0DA907BD0909000048E7303C266F00AF
S219EC1D5E1C24BD0598664A8B670C2F0B6100FEC02F0B6184506F
S219EC1D738F76BD057670304C0208002A40DBFC21025C9428407B
S219EC1D88BD07A44270A80C43BD05AD00B4BD059F1A6C202F0DDE
S219EC1D9D2F104E91BD079876700040A808BD068F3431B1C802BE
S219EC1DB2A80A6018487AFF7ABD0A220270FFBFA8084270A80A99
S219EC1DC7508F4A8B672E306B00062F08306B0004BD0506022F5D
S219EC1DDC083053BD069A383043BD089F4461FF000377A84FEF06
S219EC1DF1001C528249EC00304BED003052BD05881A7009B083CD
S219EC1E066C00FF664CDF3C0C4E75320034003136003235360065
S219EC1E1B31364D00002F02202F0008BD06782228003C7404B498
S219EC1E3080653A303B0A0C41BD06AE42FB0002000A0010001AE7
S219EC1E4500200026487AFFC06004487AFFBC2F014E90601E481B
S219EC1E5A7AFFB460F4487AFFB160EE487AE95260E8487AFFA992
S219EC1E6F2FBD05CA583858508F241FBD07840C6FBD06A71E5C01
S219EC1E84740C830000012B6E00014A222900047007C081B0B900
S219EC1E99210294C06600013824BD05A67A660ABD09A8746A70FB
S219EC1EAE01B0826614BD09100AE9C1048B7821B8806C50700269
S219EC1EC3B0826620BD091A16E9C114BD041A816C0CBD0AA91059
S219EC1ED86E2A7003B082660000DE242900042002BD072C000020
S219EC1EEDCE7222D2BD0524E9C2048BB2806E0000BC70304C0350
S219EC1F02BD08A16242B0BD0996687C216900040004216900546F
S219EC1F17000821690050000C216900A40010202900A841E8007E
S219EC1F2C14670E223C000F42404C4018012081600242904282F9
S219EC1F414A29000867205089BD0654D082BD05569411990800F8
S219EC1F5652827815B8826D044A1166E27015B0826D22BD068647
S219EC1F6B2670304C01BD0B2ABC0020BD082C6CE4BD05896E7421
S219EC1F8072304C001800D2BD07224230180052BD05A10C5C7482
S219EC1F950CB90000012BBD040A5EC049C05280BD06861E4FEFEC
S219EC1FAAFFCC48E73F3EBD06AD3223EF0064210294C07AFF288A
S219EC1FBF3C00EC2734363C564E70093F003F032F042F05BD0A5B
S219EC1FD4983842AF0040BD0670B0AF00406F00010A4DBD068228
S219EC1FE912AF003042AF003CB0AF003C6F0000D84BBD05162FA0
S219EC1FFE7C21025C94002C41EE000C2F48003849EE00082F507A
S219EC201300342E14242F00344C07280045EE00042C122006BDF7
S219EC202806C372D48047ED000C43ED00082A13281122054C04BE
S219EC203D180041ED00042610BD06CE6EFFFFD280B282635C24B7
S219EC205283208628842287206F0038208526AF003443EE001054
S219EC2067201141ED00102290208043EE0014BD050E14BD040EBA
S219EC207C266F0030D7BD0587002F0B49EF00482F0CBD08B37C90
S219EC20912F2F00342F0B4E922F0C2F2F0040BD06A46E52AF00EE
S219EC20A63C7030D1AF002C4BED0030206F003CB1F9BD06A63E28
S219EC20BBFF3A52AF0040BD051C304DEE0030BD0A82086E00FF6E
S219EC20D0044CDF7CFC4FEF0034BD068878242F0010246F001424
S219EC20E5226F001870FF429242914281B2BD06876C28BD06849C
S219EC20FA44B4A80004660E20017601208324A8001022A80014D3
S219EC210F528141E80030BD06286DDEBD06887E223804BA20382F
S219EC212404BA90810C80000003E863F24280BD0A8634222F0086
S219EC213918242F00146C0612FC002D448220492602780A4C440B
S219EC214E300024030C0000096E060600003060040600005710A4
S219EC2163C053814A8366DE53816B0810FC002053816AF84210D6
S219EC2178B3C8640A101112E01080B3C865F6BD06841C00004854
S219EC218DE73CBD0460142A2F0018282F001C262F0020342F0038
S219EC21A22620492208205020C520C420C33082303C00734E4241
S219EC21B74CDF003CBD06D220226F000C262F0010342F0016BDCE
S219EC21CC072AC3B18020C020C0BD082CBD06D0504E56FFCC2FB6
S219EC21E10A246E000C202E001041EEFFE22D48FFCE2D6E0008FD
S219EC21F6FFD242AEFFD62D40FFDA725AD2802D41FFDE30522FED
S219EC220B08BD05A25A0B2F3C00640000486EFFCE6100FF6034B6
S219EC2220AEFFEE4FEF0014246EFFC84E5EBD0654BD084A42AEB0
S219EC2235BD064842AEFFDA42AEFFDE306E000A2F082F3C006553
S219EC224ABD094052BD05C468BD0738202E00103D6E000EBD0A6E
S219EC225F4241EEFFCC2D48BD13810EBD054ABD058110012F3C9E
S219EC22740066BD0850FED04FEF0014BD0850BD164C2D6E0010EA
S219EC2289BD0A81142D6E0014FFF02D6E0018FFF4BD0F566D0020
S219EC229E04BD07567ABD085648E73F3E2E2F0040266F0044283D
S219EC22B32F00482C2F004C2A6F0050286F005424BD059A244A45
S219EC22C8AA017E6622202A00187210B28067087220B280670AA5
S219EC22DD6010223C10020565600E223C200208886006428060AB
S219EC22F2000088206A018642A72F0B2F072007E5882F002F2FD3
S219EC230700442F012F3C200288882F2F004C2F0A206800704E96
S219EC231C904FEF00244A8067542C444285B9C56F4C240C94858B
S219EC2331B7C26E02240B280E4283BBC36F32200D9083BE806E88
S219EC2346022007BD04542F02BD074CBD0404062F04BD05487496
S219EC235B4E90D8874FEF001CD687BBC36ECEDC8BDA8BB9C56E16
S219EC2370B470014CDF7CFCBD05815C302C2F00242A2F00282EA2
S219EC23852F002C246F0030282F0034266F004022BD06815CA969
S219EC239A017E660000B620690186260453832F03486AFFFF2F81
S219EC23AF072F052F09206800644E907403C486E78A70FCCC8001
S219EC23C49A82D5C2BD069C36226801864878FFFFBD05B2602FF9
S219EC23D90058BD04042F0820690050BD05815828BD0A262F02F0
S219EC23EE2F042F0ABD0550BD042054BD05201828036D1CBD0BC0
S219EC24032406BD051C584E90DC8B508F53846AE4BD0B1CBD0485
S219EC24181A684E90BD0F12144E90508F4CDF0CBD0581643E2073
S219EC242D202F001C2A2F0020282F0024262F0028242F002CBD91
S219EC24420A833C67BD06831AA672FFB280662C42844285262A4C
S219EC24570008242A000C206A01867C0FBCAA0018640ABD078150
S219EC246C500F6006BD040A42A742A7604072FEBD0432222A00B9
S219EC248118700046007C08BC816710700046407C10BC81670623
S219EC2496203C00FFFFFFBD0444BD073C0660BD0552BD09821A06
S219EC24AB00BD05832420BD05817410BD078344BD058B76BD05CB
S219EC24C018244E90BD0514BD040C144E9070014FEF00184CDF75
S219EC24D5047C4E752F0ABD0B813E0442806048BD08582F2F0015
S219EC24EA0C2F2F0014BD085ABD05422F002CBD0404BD0808BDA1
S219EC24FF085EBD05B56ABD0D62588F245F4E754E560000BD05D1
S219EC251482362E0008222E000C2A2E0014282E0018262E001C2D
S219EC2529242E0020BD0B85764CBD058222FFBCAE0024663A2F69
S219EC253EBD0581702F002F01BD055228BD067EBD059566A800A3
S219EC2553306720BD058664BD0C816230BD06836E60444AA800F9
S219EC25683466044280603C486E002448780020BD05814C002FF9
S219EC257D2E0010BD074E34BD064EBD07872ABD0C4638BD0546FF
S219EC25923870014CEE047CBD06C97448E73C002A2F0014282FB1
S219EC25A70018262F001C242F00202205928320049082BD0A8574
S219EC25BC58BD05823A582069BD088312BD09831601BD05855C05
S219EC25D13CBD0D84562F0040BD0404BD097A0820690040BD051D
S219EC25E67A34BD12847C7001588FBD068B1CBD07810ABD098B10
S219EC25FB4A242F0024BD24810A2F2F001CBD19810ABD06876424
S219EC2610BD31810A0038286F0014266F0018BD0F7A38246901AF
S219EC2625864AAF00106722206F00204870B8FFBD0608C8FF2FB8
S219EC263A0B2F0C2F09206A0064BD056214600ABD050E684E9076
S219EC264F588F70014CDF1C00BD05884638246F0028266F002CA2
S219EC26642E2F00302C2F0034282FBD056E3CBD0681124AA8BD8C
S219EC2679088666018870FFB08A661223C02101122823F804BAA5
S219EC268E21011240600001662A39BD04124A8A670000F84A85D3
S219EC26A36D6E24BD04102CBE82660C223804BAB2B9BD042867B0
S219EC26B8582605E78B23C3BD042A22BD0420344C01280023C2C5
S219EC26CDBD042A20BD041030E788BD055A30487801002FBD048F
S219EC26E2123CBD0506382F012F002F022F030685210102282FDC
S219EC26F7056100FB0470FFBD0681064FEF0020E6864ABD046288
S219EC270C286C2823CBBD05811AC7BD045442BD04143023C4BDF9
S219EC2721046A23EF0040BD044A23EF0044BD0458B6FC00FF6E59
S219EC27360000AE7210B2846D0000A6204BD1FCBD045C20045358
S219EC274B807201B286651828006D0C1092D5CC41E801005384FB
S219EC27606AF452BD054E607ABD041830BD0B18DDBD0618624A8C
S219EC2775856D5EBD108160BD068206BD3A8166FA1EBD0C81666F
S219EC278ABD088270BD05833AFC4E75202F00044C2F0800000876
S219EC279FBD059516E848E73F3E61000D3A264028BD058338423E
S219EC27B48542AF003C4BF8000042AF00387E01262C0018426F67
S219EC27C9003642862003E6802F002F2C000861BA508F2F400088
S219EC27DE32202C017E670C7601222C0008E6892F410032BD07E3
S219EC27F3D228364A806632700FB0836C2C206C01864AA800708F
S219EC28086722203C000081BD06D550484E415C8F2A0067162FE4
S219EC281D7C00000180003276207E026008222F003247F31C002F
S219EC283253876B00022643F900FC06404A856702264578034552
S219EC2847F800007010B08367166D0A7201B2836748600000CA6B
S219EC285C7020B0836744600000C0426F00367237B28A6D30700F
S219EC28713F908AE9C02685701BB08A6D04528460025384200A45
S219EC28865080E9C01685700BE16A3F4200363004ED48D16F0012
S219EC289B36D36F00362A4B60000084BD053C58743F948A7C3F4E
S219EC28B0C486BD0C3C220A50817C3FC2864A8567224A87671E25
S219EC28C5700FE1AA028200FF00002004E188D082E2892C00DC2E
S219EC28DA81008600E0E0E060267C12EDAA20047C0BEDA8204204
S219EC28EFD1C041F01C002C0860104A85670A2C3CBD04224A8705
S219EC2904660242BD044C060086FF0000002F4B003C60042F4BF7
S219EC291900383C7C00057008B0836722BD07816214600000B4C0
S219EC292EBD058174487220B283676C600000A43AD96000009EF5
S219EC29433419223C0000800042803002C081206F003852882F5E
S219EC295848002EE2814A806708BD041050D06006BD04084210F5
S219EC296D2F6F002E00384A8166D26064BD0E3841ED0002BD05A4
S219EC298232063AAF003660043ABCFFFF2A484A8166E0603ABDC6
S219EC29970E2AE2BD04643C58BD0564BD07623C2086600ABD050D
S219EC29AC08BCBD058C04BD04663C4A8166CE538E4A8E6C00FF89
S219EC29C136D7EF0032528A7055B08A6C00FE464A85674C41FA9A
S219EC29D6F6A64A8767202F2C000C2F2C000842A7BD058B5C5655
S219EC29EB48780060BD040C2F0548780003601EBD0C14BD1120B9
S219EC2A0001BD06905053876A00FDDE4AAC017E6706720129414E
S219EC2A1501824A85670ABD059A3EBD07A428BD059822184E7577
S219EC2A2ABD068910327CFFA8D3BD05891666542028001872082D
S219EC2A3FBD059338BD05933E601472017007601A223C0000F843
S219EC2A5400203C0000B596600C223CBD0583643C00B0B0B0BD59
S219EC2A6905BD10002F014878003E4878005842A72F094879006D
S219EC2A7EFC0A496100F6AE4FEF00204E754E71202F0004E9C022
S219EC2A93148BBD07E92C0272FFBD05C71810701C4C0018002091
S219EC2AA801068000EF4888605A70DED280227900FCA43CB3C19D
S219EC2ABD6FBD0D1E4268603CBD0AC72C670A41F80000BD05C789
S219EC2AD220BD0792402068018A9289B2A8086C6C0EBD073828AE
S219EC2AE70868D0816006BD05C84E0220402008BD079A146F007F
S219EC2AFC1043F800004282BD0B8B100442836016202A0018764B
S219EC2B1104BD05817A0A7605BD05953A027603BD0BC822346026
S219EC2B26382001BD069F36722260027022D081E788BD05EA4E76
S219EC2B3BF800404000600EE7890281BD050E4140002001D083F6
S219EC2B50600000C0BD0581260E2068018A2428086C6704226820
S219EC2B6508684A8967304281B4816F2A428030290002B092663A
S219EC2B7A16BD050A04B0AA0004660A42803011B0AA008C6790C1
S219EC2B8F43E9001C5281B4816ED643F900EF4268428120BD0532
S219EC2BA48220B1C16F2CBD093C18BD0B3C0CBD093C00FF60BD34
S219EC2BB9063EB1C16ED4BD043E48884281BD21343EBD063470D5
S219EC2BCE21B0816CD270FFBD069B7E78002D004000487A00205F
S219EC2BE3783400BD05A4764FEFFFEC48E73C3E266F003C262F6C
S219EC2BF8004042822A392102C3D07007C0837203B28067286D5D
S219EC2C0D084A8067146000020C7804B88067407205B280676437
S219EC2C22600001FC780127440060700227400064600E720827BF
S219EC2C37410060277C000001000064BD040800FF0080BD0708DA
S219EC2C4C7CBD07087860247810BD0436277CBD0427BD0628F851
S219EC2C61000078BD040803E0007C701F2740008042AB008C607E
S219EC2C762E7220BD0652BD0429BD052AFF00BD072AFF00BD09FB
S219EC2C8B5280277CBD0417008C42AB008842AB0084BD0BEE4A84
S219EC2CA0F6BD060C3F98BD07EE04486E1C7818B8806752BD05C7
S219EC2CB581543A60000138BD07EE3E406000012CBD07EE20588A
S219EC2CCA6E0CBD07EE3E3C60000116BD040C22186754BD04085C
S219EC2CDF2E18675E60000102BD058166400054BD058104F0000D
S219EC2CF4506058BD040A0280BD061201E000506046BD05815244
S219EC2D0920BD0612025800506034BD040A0400BD0612030000EA
S219EC2D1E506022BD040A05BD0812C000506010BD040A06BD0721
S219EC2D335A04B000507040C0837220C283BD05AB6E554A816611
S219EC2D48167246274100A4601270384A816708783C274400A494
S219EC2D5D6004274000A442AB00A860362F036100FC58588F20E8
S219EC2D72404A80675642BD05C01227400054BD050ABD042850FE
S219EC2D8742803010BD04302768000600A842823428001A720169
S219EC2D9CB2AB0060662EBD08F254671C0CABBD06812E6E12BDEC
S219EC2DB1040A030000506E08300302408000670842AB0048604C
S219EC2DC60001D43803024480006736202B0054D0802740005CE2
S219EC2DDB0C80000008006F08277CBD0408005C202B0050BD05C2
S219EC2DF01A58BD071A16BD071A58600C276B0054005C276B0001
S219EC2E05500058BD05C67A2B00544DEF002C2F0E45F900EE616C
S219EC2E1AB44E922F0E49EB00082F0C61FF00022478487AFD406D
S219EC2E2F2F0C4BBD06D65895BD0732502F0EBD05A26A242E8E60
S219EC2E442F0C4E95487AFD1EBD0508BD061E60BD041E2F0EBDA9
S219EC2E590412BD08D67A3854BD0B20A4BD0A20487AFCE8BD07DF
S219EC2E6E28244A446706487AFCDB6004487AFCD9BD0416508FCD
S219EC2E831F7C00200024422F0026422F00257004C08267061FFB
S219EC2E987C005600257008BD070C4300257002BD070C530025D3
S219EC2EAD7001BD070C4400257810C484BD050C2A00254A2F000F
S219EC2EC2256708BD0676508F6100049E2740004C202B006024D9
S219EC2ED7006C025E82E682222B005C28014C0248002744006804
S219EC2EEC42AB006C7802274400707808B8805DC049C078019843
S219EC2F0180274400747001274000902741009C277C000020003C
S219EC2F1600A0780DE9A94C021800274100942F0361001246278A
S219EC2F2B400098588F4AAB0004661C20452028008C67BD058480
S219EC2F402EBD050C64BD050CA827430004BD054C484CDF7C3C0E
S219EC2F55BD05A026BD059248BD09F6620833C0210112484E75FA
S219EC2F6A31C0184C4E754E7148E738207602781B3F04BD05D122
S219EC2F7F24034E4D5C8F70623FBD05EE18BD070E3FBD0C0EBD21
S219EC2F940D2863BD0D2830BD192845BD191A66BD0C1A4CDF04D2
S219EC2FA9BD05AF203800222F001034BD05E7360C420001660A26
S219EC2FBE4283363921011248600642833638184C7007C081BDEB
S219EC2FD3058946286D064A80670A60407405B480672A6038BD1B
S219EC2FE804306740BD07EE12B6BD0708B2602EBD05E852BD04C5
S219EC2FFD1010BD05101EBD091020BD05100EBD091008BD041039
S219EC3012BD08AC20660001207420C481BD07F724987840C28452
S219EC302767184A82670A33FC00552102C1B4602033FC0046BD19
S219EC303C050A16BD07183CBD050E0833FC0038BD040ABD0A89F7
S219EC305134BD05F75454BD08893400B8BD07893442600000ACDB
S219EC3066BD0789345EBD0989344060000096BD078934BD058702
S219EC307B0E2E1867706000008233FC01402102C1AE33FC00F021
S219EC30902102C1B06000012C33FC0280BD061401E0BD071418C0
S219EC30A533FC0320BD06140258BD07140433FC0400BD061403B9
S219EC30BABD0408B0600000F033FC05BD0814C0BD041400BD05E3
S219EC30CFEF7CC1B6600000D433FC06BD076C04B0BD0730C0BD5B
S219EC30E405850E122200588F6000FE5CE9C1048B7421B4806D0A
S219EC30F918781C4C04BD06AE0000EF4888BD09467872DED08180
S219EC310EBD079044C06F10741C4C02BD08264268605ABD058372
S219EC312366B2BD0583661EBD0A903A9089B0A8086C6C36BD07E9
S219EC313854680868602622030C4200026600FDE8BD0E28009894
S219EC314D6C0E721C4C01BD04280094D1C0600622036000FDC26F
S219EC316233E8BD058102AE33E800042102C1B033D02102C1B40B
S219EC3177BD08B404383026BD079D7A246F002026BD0552240358
S219EC318C2004D083B0836F7EBD07981E607008B0AB0018655824
S219EC31A1BD059B0044670E41F92101125020702C00B1D2674C62
S219EC31B6BD060E21922C002212206B01862F0B42A72001E1BD3B
S219EC31CB059102FF002FBD07DA04BD040AE0BD059108FF002F62
S219EC31E0012F0220680008BD07A05C0ABD0A425282588ABD05DC
S219EC31F57E826E824A8366200C84000001006618BD07810A1023
S219EC320ABD07810A08BD05BF620112444CDF0C1C4E752F0A20BE
S219EC321F2F0008246F001032003240D0AF000CB0896F12BD0623
S219EC32345624F09C0052413241B0896EEEBD05EA2EBD05816472
S219EC3249BD0B923E142268018A2028017E66282028016ED0A939
S219EC325E03CE4E75BD05921EBD0A1A0EBD061A01064E75BD040D
S219EC32730ABD05943CBD069326BD0681180EBD05952808BD058A
S219EC3288B97E5C4E752038044EBD0424BD0988700A428132BDE1
S219EC329D08873A813238184CBD09865A2ABD08FD78BD058616AB
S219EC32B250BD058748386010BD088F48BD0786362670064E7512
S219EC32C72F016100F54E588F204042804A88672A302800020C5B
S219EC32DC400140620C0C6800F00004620442804E750C400280DC
S219EC32F1BD041201E0BD041270044E75BD043C4E71433A5C7311
S219EC3306637265656E2E6C6F67004FEFFEAC48E73F3E286F0118
S219EC331B84246F0188242F018C282F01902A6F01944DF80000D1
S219EC3330BD06840A42863F7CFFFF002E7EFF3FBD05F10A002CF2
S219EC334532BD06890E41BD05890E853ABD088154853A38184CA8
S219EC335A30427003B088670006786D0C7602B6BD040A36600063
S219EC336F0BCCB0FC4D49670AB0FC564E670660000BBC7C01303D
S219EC33844452887014B0886500060EBD08C1520604002A0030B4
S219EC3399004C0066012401AA01F0028602AE02EC039203E80411
S219EC33AE7404AA04E40532054C058C05CC05E82485600005D654
S219EC33C3280A74BD059C6449F800007007C084670003785780E7
S219EC33D8428360000602202A00042800660228052F042F0A61EA
S219EC33ED00F5EA4283508F60000B42BD08F13005964AAB017EB5
S219EC34026600058E262B0018E68B4C2B380000084ABD05FB2211
S219EC3417671274FFB48C6700057228BD0410606000056878FF08
S219EC342CB88A660A202B000C4C03080060183F0ABD05C77CB8BC
S219EC344122BD05121800588FB28063022001204048703800BDCB
S219EC345605EA1203371624002800508F673A202B016E94802065
S219EC346B4241F038FF24084C4328024C032800D48070FFB08C56
S219EC348067022882BD06786600050023C4BD040A23C2BD0678BB
S219EC349504F072FFB28C670004E84294600004E2BD08813E0497
S219EC34AAD8BD06813E04D0BD05812A08B9F9BD043066082879C7
S219EC34BFBD043E600449F800004ABD0438B02F0CBD06810C36AF
S219EC34D43A508FBD0526686600049A6100FCFAB0BD05815C6679
S219EC34E922246B016E284A23CA2102955C74FFBD05A048BD056B
S219EC34FE1ABD06FD2E600004F2BD0F105CBD09810652BD07824D
S219EC351330000448BD078110406100FCA02239BD04302441B043
S219EC3528816604BD045EB2BD04265C6608286B016E600000F8D6
S219EC353D2841600000F2BD084603CEBD063C03C6202A00146764
S219EC3552042540001C222A001C670003F2242B0018E68A202B08
S219EC356700084C0208004C0108002540BD059B58BD05815435C5
S219EC357CB625400008508F57C149C1528125410004256B000850
S219EC35910018262A00184C0238002543002090AB016E22BD0518
S219EC35A640180026004C41300128014C424004254400104C2BF8
S219EC35BB2800000822004C42100125410014600003BD05F86022
S219EC35D0BD05811676BD0781166E2F2A0008BD067034F6740229
S219EC35E52542000460000356BD09284EBD072846202B016EB0E4
S219EC35FA8C6F18204C91C0202B0018E6884C2B08000008760D20
S219EC360FE7A8B088620623CCBD068262600003A02F7C00000042
S219EC3624AC003042832403BD07E552BD07950C6670BD099770D5
S219EC36392810030200FF80665E7010C0836758240302820000DE
S219EC364EBF7FBD06F846BF7FB082670A2F420034600EBA8366A0
S219EC36630642AF003460042F4300342F027834D88F2F04610054
S219EC3678F2F42F42003C508F7001B0AF00786616BD05AB16048F
S219EC368DBD05DB380FD7D0BD06FD3E670C52830C830000FFFFD9
S219EC36A26F00FF7442834A866600081C260B60000816BD070EA0
S219EC36B70E280ABD08866874034BF800003C7C0001BD058672ED
S219EC36CC0657806000029442830C410001670007E4BD0476F792
S219EC36E148588F0C79BD068E606E00022E0C79BD068E646F0037
S219EC36F6029E6000021EBD065607BD06FC52B26700020CBD0891
S219EC370B84460202BD06824C01FABD068714BD058A4E6090ABCB
S219EC3720016E240A7801C4842442242B00084A8A67184C0328BE
S219EC373500BD058338002A004C4350052801428142826014429D
S219EC374A844285BD0A1C24004C4320022F2B000C2F2B00082F7F
S219EC375F01BD05B148056100E986BD06DE380192BD07810C2CEA
S219EC3774BD09FD48422F2A001C2F2A00182F2A00142F2A001046
S219EC37892F2A000C2F2A00086100E830BD073610BD063606F6FC
S219EC379EBD0936BD0422BD15362F2A00206100E9A0BD06D96CD3
S219EC37B300D6BD073ABCBD09FA36D2BD06817200CABD13422CFA
S219EC37C82F2A0028BD0B4A24BD064EE5144FEF002860000088EC
S219EC37DDBD074E6E70FFB08A670000C424BC0000010160000050
S219EC37F2BABD071A54BD07686ABD056664BD0744BD1B812AE751
S219EC3807AA4FEF0020602CBD074014BD07402ABD168212E9523F
S219EC381CBD05D4508057BD05BE3825400004603E42AA000460DA
S219EC3831384A866634BD073C2CBD069012BD06B13E588F601C49
S219EC38464A86BD0A8F4EBD061CBD05B022104E90508F428360A3
S219EC385B00059E2605BD0684500594BD0B935090BD05913CBDE2
S219EC3870079548BD08945EBD08956078474604603EBD058514FB
S219EC38850E578026057202B2806500055460222F046100F4B609
S219EC389ABD0C8512053CBD0985120C6000052EBD05229458BDFE
S219EC38AF058632F3DC2A00588F30040240800057C0488052400F
S219EC38C433C02102C3C84A8C66044A8A670E76FFB68C660004B3
S219EC38D952B68A6600044C4A826D000446BD088184764A8E679F
S219EC38EE06BD06FF304A8E6650BD0581620467484A7921025AB6
S219EC3903F26740387C00013F0C3F3C00454E41588F3F40002E42
S219EC39186D2C263C00EC417C4240BD07CC723C4E41508F3E0099
S219EC392D6D143F00BD052A46BD0B818554A242AB0182206B01E2
S219EC3942864879BD046CBD0582501C4E90487800A02F0B240FB0
S219EC39570682000000EC2F0261FF00105C40BD058316792102C2
S219EC396CC3C86736222F00DCD2812F4100E4202F00E0D0802FAB
S219EC39814000E80C810000080063082FBD069D3AE40CAFBD05EE
S219EC399608E8BD0912E8BD05892080013042A742A7BD0404BD0B
S219EC39AB08086100E7B8BD05E05C82BD068A120726BD05FE1A20
S219EC39C000030E49F8000045F800004283202BBD07BA640A7402
S219EC39D520B4806760600000BC4282B9FCBD05886406287CBD27
S219EC39EA0408B5BD070E24BD050EBD0789000476004643BD083B
S219EC39FF94402F032F0A2F0CBD08942645EA040049EC08000653
S219EC3A148300000800BD06C908703FB0826CA86072BD425C016A
S219EC3A290049EC01BD055C01BD075C0C82000000FF6FA660140C
S219EC3A3E2F3C00E1106A4878010042A76100F4BD058A36307992
S219EC3A532102C1AEB1D366BD060AB0B1EB000467182F0B6100BA
S219EC3A68EC3828002F006100F2442F046100F18EBD052E3921E9
S219EC3A7D02C1B6BD05CA566420792102C58C206800242050213A
S219EC3A927C00EF8B0C0130BD04088C2A013842A8013C217C007F
S219EC3AA7FC78C00144BD058D722B0800000CE688BD05AF0015AC
S219EC3ABC4E415C8F2740017E675ABD0E1C42A72F2B017E61FFDA
S219EC3AD100105922BD046E603A4AAB017E67BD05B466BD086AB5
S219EC3AE642AB018242AB017EBD046A8E68BD067290180138BD0A
S219EC3AFB0508CABD0576EF9166BD0476017E670621C0044E601A
S219EC3B100E21EB016E044E23EB016E2102955C4A8D6768BD06DA
S219EC3B2583722EAEBD0C900EBD0681851ABD05CD3E100EA250A2
S219EC3B3A8FBD09837C08BD05837C0C60124281323900FC0D4E65
S219EC3B4F600A22BD04088C6002720FBD088B12BD05AC22016158
S219EC3B6400E2026100F080BD05B53A0000BA4A8E670000B42028
S219EC3B792B017E222B000C4A80666E4282B282630000A0BD04E9
S219EC3B8E5E7610B6BD08BF3E146022E9C2060441F900FC0D3017
S219EC3BA3428132300A006014BD09125022300C006004E9C216CE
S219EC3BB804202B000C9082BD043A640270102F00BD058C0E022C
S219EC3BCDBD067CE186BD05E03C10D480B4AB000C659C603824E2
S219EC3BE240262B0008E68BE98BBD0578222F03E9C206C144809B
S219EC3BF72F00BD058E3A1057BAD5C34FEF000C7210D481BD0573
S219EC3C0C34DE7401274201822F046100EF9C2A00588F4A476D11
S219EC3C210A3F073F3C003E4E41588F4A6F002E6D127001362FE2
S219EC3C36002E3F03BD05E124BD06875AEF002C2102C1A26000AC
S219EC3C4B00AA41EC00017801B888640ABD05833E0421CC044EAE
S219EC3C6041EA00017001B0886400008ABD078A3070BD058B4818
S219EC3C756ABD06921695EB016E4A8A6D6CBD08921E720DE3A859
S219EC3C8AB08A635CBD068814260F0683000000E42F0361FF00A8
S219EC3C9F10582CBD0826220A4C40100028004C4240042F44006B
S219EC3CB4F82F4100FC4FEF000C0C8100001FFF621E2F03BD063C
S219EC3CC9836802DC508F6010BD05810E0AB5F8042E6404274ACA
S219EC3CDE017E26052003BD06AF2801544E75BD06CD7CBD0B99F4
S219EC3CF3648234BD089810823438184C72FFB280671642A73FAA
S219EC3D0800426748780003BD068842F3BD0582722002241FBDF1
S219EC3D1D0442BD059850B2BD0598502CBD0A9D50222808607052
S219EC3D32037404B48167506D0A70027401B4816746603A7001D9
S219EC3D477405B481673C603070020C4100026632BD0C3400142B
S219EC3D5C5381BD0434651C303B1ABD06DA2612000A0012000E93
S219EC3D71001270026006700360027004BD0578032F02242FBD9B
S219EC3D8606D858C3D0BD0B81428030BD0881428030BD0599524E
S219EC3D9BB088662A222900082029000CBD05BB0C0A4C001800BB
S219EC3DB0E689600000EEBD05AF4E29BD05936A00180060000031
S219EC3DC5DCBD08CE246600008410020200FF80223C00007D000D
S219EC3DDA4ABD0412BEBD061E1FBD05A83ABD05A20ABD069B7424
S219EC3DEF48BD059B743A6048BD079B7438603E720C4841BD075F
S219EC3E04A20A526E10223C00075300BD07A210426020223C00EE
S219EC3E1912C0BD05102218673260BD0420012C006028223C00D8
S219EC3E2E04B000BD05201D4C0060182F026100E71EBD059C30F2
S219EC3E43814A80673C32280002C2E8BD05D036827603B6806725
S219EC3E5820BD057A1060187604B680670C7605B680670A600AD1
S219EC3E6DE6816006D2816002E5893002BD05AA2002E589200110
S219EC3E82BD06C91C48E73038242F001843F800BD05E664BD0686
S219EC3E9788027001B088670ABD059B747E600000BD05EB54C30E
S219EC3EACD02668018A222B086CB2896F1E45F80000206B086866
S219EC3EC1D1CA3028001A7610C083663A528945EA001CB2896EB6
S219EC3ED6E6BD044EBD072A00009ABD0F2C02C08367022849BD95
S219EC3EEB092EE460762049D1F900FCA43C7022D088BD0DB16A02
S219EC3F007ABD257AC0BD157A20BD20784A8C6D18204CBD067A60
S219EC3F157422D488E78A0282BD057A4240002002BD06819E16E7
S219EC3F2ABD05CB682FBD068B765B06BD05A060BD1186180C41CD
S219EC3F3FFFFF67000104BD05B4320C7007C081660602417FFF79
S219EC3F54601EBD040C57807602B680641270F8C0812F006100E8
S219EC3F69FE8E220076048283588FBD09A03440703082801001B1
S219EC3F7E0200FF80670A0281000001C874046014BD059648640F
S219EC3F936C0EBD05123F02820000BE0082827018C0817610B650
S219EC3FA88066000092004101006000008ABD072A0A7007C280BE
S219EC3FBD76F8C4838282BD0BA210BD05FA5ABD078654BD05A5B0
S219EC3FD230D3E8086C41E90022BD09D42E3A602E2401BD046068
S219EC3FE74000BD0622BD041EBD05A23212BD0A3CD3E80098BD15
S219EC3FFC04184A82BD06D478B1C06F08600E70FFB0886D0874E2
S219EC401107C282763882837001BD059D0664670874FFBD059D30
S219EC40267464BD088468BD078972BD07A60C226801864AA900D2
S219EC403B90670EBD05C23490BD06C2344E7542804E754E71BDB5
S219EC4050068908222F00BD06819416B267587401B4806724BD32
S219EC406507AA144A7402B480672860424A81673E2F012FBD05DA
S219EC407AB41061FF00032776600EBD0D1016508F601E4A816F87
S219EC408F0623C1BD0414BD0B1AB84280588F600270FF241FBD58
S219EC40A40676000048E720BD05C32C206F0018266CFE303028DB
S219EC40B90002320053410C40000763024241374100BD041404AD
S219EC40CEB06CFD666C044A406C02700148C0D080224037710131
S219EC40E37000E4D5D0002C3028000653400C4000056302700299
S219EC40F83740003C30280008BD1B32383028000CBD1B20A23738
S219EC410D6CFE20003A377C0001003E3028000E32000C4000040E
S219EC4122BD078110243028001034005342BD058A3C080C42000F
S219EC413717630A60060C42000B63027001374000203028001268
S219EC414CBD1B601E3768001404AA2F0BBD05B1440FEFB4426B66
S219EC416104A8376CFE160032426B002A426B002EBD057C22426F
S219EC41766B04AC426B04B0376CFD4C04AE376CFD4E04B2426BD8
S219EC418B0002276CFE34000442AB0034377C029A0018277C2117
S219EC41A00296900014376CFE480044426B001A426B0046426B49
S219EC41B50026426B04A64253426B0012BD05C86C7900FC6A60FE
S219EC41CA486B00A645BD06E93E92426B000A37BD04164400A428
S219EC41DF4878005A486CFD4C2F2F0038BD05B23E1C2EBC000075
S219EC41F40018486CFE0E2F2F0028BD05140C4CDF1C044E754E29
S219EC420975433A5C766964656FBD05A6090048E7383E286F009D
S219EC421E242C6F00282A6F0030BD088444BD07973A50283C21F3
S219EC423302A1884A39BD04066742263C00EC5486BD0E97343673
S219EC4248006D24BD06819A7E0A0E588FBD08819E4E00404E4183
S219EC425DBD0476BD050CBD05900A42BD0544381630444A886DB1
S219EC4272367001B0886C527205B288662ABD0CF13C3655B04BEC
S219EC4287673A428076033F0BBD10819850602242800C4400043D
S219EC429C6E00024670FF554476FF3F033F04BD0E244878005A5B
S219EC42B12F3C00E4D46247ECFD4C2F0BBD088230BD0918D4485B
S219EC42C66CFCF2BD051018BD0510BC486CFEBD06B47420BD05A1
S219EC42DB8236BD0526AFEC4879210295C8BD0A38B6C8BD051210
S219EC42F06CBD0A12D124BD04129CB8BD0F3CE09410BD05185CA5
S219EC43054E92302CFFF453403680322CFFFC53413941FD4E394F
S219EC431A7C0116FD52BD0506544FEF000C3214303C01000C4155
S219EC432F00076E0648C17001E3A83940FD66397C0001FD9242A5
S219EC43446CFD9A426CFCF43954FCFA426CFCFCBD069A0C97CCDD
S219EC4359297C210297A4FE3023FC2102962421029C5842B921FE
S219EC436E0297E4397CFFFFFE4A397C7FFFFE0EBD050610426C0C
S219EC4383FE12426CFE14BD043295C8FE38BD05086CFE3C42AC80
S219EC4398FE4042ACFE443839BD041845ECFE3842834282225AFB
S219EC43AD203CBD0410677E30290042BD059732042949FE3430FA
S219EC43C211B840670452823800BD058A2052306CFE0E322900B4
S219EC43D73242803001B0886C043941FE0E306CFE103229002860
S219EC43ECBD0B1410306CFE12BD0A286FBD041412306CFE14BD83
S219EC44010A28BD0514145283226900544A896688225A4A89666F
S219EC4416823943FD5652823942FD603942FE48296CFE34FC76A9
S219EC442B2F0D2F2F00302F0E2F0C6100FB86426CFE4C426CFEC3
S219EC4440A2426CFE2E426CFEA040F921025288007C0700297C50
S219EC445500EC5484FFBE4FEF0010363C0100203C00FC5702BDB1
S219EC446A078512BD0781AB42FFC246BD0530BD05D462BD06E4E4
S219EC447F0A38286F00182039210297E4671C2940FE30266CFEA5
S219EC449430262B0040BD0AF5482943FE3066E8BD05542CFFC272
S219EC44A9BD0C52BD0781AC10E7383C2A6F0020263C000004B8BF
S219EC44BEBD0EF10A2640BD08818A6E009E2F0342A72F0049F964
S219EC44D300FCA47C4E944FEF000C706ABD0CF02C24006610BD85
S219EC44E80A76BD05C226684878006ABD04364E94760243F92164
S219EC44FD0297A4BD04382079210297E44A88671AB6680028664D
S219EC451214524322690040206900404A886706BD041467EC2BD4
S219EC45274BFE30276900400040274204B4234B00403743002894
S219EC453CBD0DD26A0D6100FA343043BD05D36008BD068194206F
S219EC455148E72030266F0010226BFE3030290028BD058F2A4445
S219EC456645BD057ABD0676B0BD045E0E246A0040206A0040BD63
S219EC457B040E66F225BD0568202904B4BD0DEA122BFE30BD0C98
S219EC4590EA0E0C044E7500EC5DFE00EC68D8BD0404BD06086CEB
S219EC45A5BE00EC75CA00EC78F2BD0610839A00EC7A0600EC8CFD
S219EC45BA6800EC80D200EC8672BD06107C6800EC895200EC66A1
S219EC45CF4C00EC6B0EBD0404BD0608724E00EC782600EC79D224
S219EC45E4BD061085A400EC7BB600EC923200EC82FA00EC88A28A
S219EC45F9BD06107FF000EC8AC8740066006869006C73006363EC
S219EC460E006373006E6500657100766300767300706C006D69B3
S219EC4623006765006C74006774006C650000EC598800EC598A9D
S219EC463800EC598C00EC598F00EC599200EC599500EC59980049
S219EC464DEC599B00EC599E00EC59A100EC59A400EC59A700ECFD
S219EC466259AA00EC59AD00EC59B000EC59B36F6774006F6765EB
S219EC4677006F6C74006F6C65006F676C006F7200756E007565CE
S219EC468C71007567740075676500756C7400756C6500736600B2
S219EC46A173657100676C00676C65006EBD0505676C006EBD0488
S219EC46B6086C74006E67BD04107400736E6500737400BD07818A
S219EC46CB189B00EC59F600EC59FA00EC59FE00EC5A0200EC5AEB
S219EC46E00600EC5A0A00EC5A0D00EC5A1000EC5A1400EC5A181D
S219EC46F500EC5A1C00EC5A20BD07813C8800EC5A2400EC5A2717
S219EC470ABD07812CBD088138B300EC5A2B00EC5A2E00EC5A32AA
S219EC471F00EC5A3700EC5A3B00EC5A3F00EC5A4300EC5A4700FB
S219EC4734EC5A4B00EC5A4F6273006263006C6300737300736334
S219EC47490061730061630077730077630069730069630067738C
S219EC475E006763000000EC5AD200EC5AD5BD0682405AD800ECB5
S219EC47735ADB00EC5ADE00EC5AE100EC5AE400EC5AE700EC5A23
S219EC4788EA00EC5AED00EC5AF000EC5AF300EC5AF6BD078268B5
S219EC479D92613000613100613200613300613400613500613678
S219EC47B20073700000EC5B3A00EC5B3D00EC5B4000EC5B430008
S219EC47C7EC5B4600EC5B4900EC5B4C00EC5B4F6430006431007D
S219EC47DC6432006433006434006435006436006437BD043872D9
S219EC47F100EC5B7500EC5B7800EC5B7B00EC5B7E00EC5B8100F8
S219EC4806EC5B8400EC5B87667030006670310066703200667028
S219EC481B33006670340066703500667036006670BD0540AA00C1
S219EC4830EC5BAE00EC5BB200EC5BB600EC5BBA00EC5BBE00ECA5
S219EC48455BC200EC5BC6667069617200667073BD04056372BD90
S219EC485A0430EA00EC5BF000EC5BF5206F000442801010E188E9
S219EC486F80280001BD059C486F000810107218E3A8428112284B
S219EC488400017410E5A98081BD050C02E1898081802800032410
S219EC48991F4E75226F0004E9D1000441FAFCFE20700C002F09DB
S219EC48AE4E905280588FBD05E058DC2F0A2F02246E00084AAA9F
S219EC48C3000867064AAA000C66BD0781B15A00D02D4AFFDC2D75
S219EC48D87C21017D40FFE8BD0708ECBD04087E40FFF0BD07089E
S219EC48EDF442AEFFF82D52FFE02D6A0004FFE442AEFFFC4239A8
S219EC4902BD042ABD04067E40422A001D422A001C42AA002023FF
S219EC4917EA001021029D142F2EFFE06100FF3072012D41FFF828
S219EC492CBD06E7042200740CE4A941FAFC1C20701C002E8048B3
S219EC49416EFFDCBD05A72A094879BD044E61FF00020618BD0975
S219EC4956FA461242182F082F2A00BD05C4140264508F600620BA
S219EC496B6A000C4210BD062EBD05AA6ABD041A4A2052202EFFD3
S219EC4980F841F00A00508F2008242EFFD4246EFFD84E5E4E75FA
S219EC4995616E64692E620900BD0508770900656F72BD0510BDC8
S219EC49AA0508770900BD070FBD070E2C7372002C6363720072EE
S219EC49BF746D09006D6F7665702E0062636867090062636C7273
S219EC49D4090062736574090062747374090063616C6C6DBD048D
S219EC49E90773322E6CBD070877BD05082E0063686B322E00634E
S219EC49FE6D70322EBD0547732E0061646469BD058107BD041718
S219EC4A1369BD058101BD04770073756269BD0A926A202F0028CB
S219EC4A2836004281BD0682300C800000023C672E6E0E743CB4DB
S219EC4A3D806746747CB4806748604CBD04180A3C6726BD0681D7
S219EC4A52B772027C671460BD05C95E0A7C671A602E223C00EC14
S219EC4A675D566026BD05085E601EBD0508666016BD05086E602C
S219EC4A7C0EBD0508766006BD05087D4A8167402F01BD05E95A92
S219EC4A91ECB4164E927040C083508F41F900ECC252670E487848
S219EC4AA600022F0C4E90487AFEE4600CBD05B226BD060EDA2F6B
S219EC4ABB0CBD05915C106000078C42823403BD069F42FFF00C9D
S219EC4AD080000006C06620487AFEBBBD0A56508F7007C0827272
S219EC4AE508C4816600064060000646BD0630F1BD07CB16660037
S219EC4AFA0132487AFE8EBD0C8108C480508F206C001018030207
S219EC4B0F04FF804A82670610BC006C600410BC007752AC0010F7
S219EC4B24BD041C10BC0009BD040C4A04671EE9C3050341FAFC4E
S219EC4B39422F300C002F0C4E92BD07202CBD0420508F4DBD05CF
S219EC4B4E5845FAFBEA47FAFC9A4BF900ECC4FE4AAC002067425D
S219EC4B637407C4832F322CBD043496BD073440BD0B6028BD0429
S219EC4B780C42A72F0248780002222C000454812F014E9342577E
S219EC4B8D3F40BD05821C95603442A7BD0544BD052220BD042244
S219EC4BA2802F00BD0C22BD0C4ABD0F6A29BD0414BD05F25CAC70
S219EC4BB7001C4A046620BD0C8136BD068152FB70BD0681526190
S219EC4BCC0053F2BD068212421060000616BD078242C0BD0582ED
S219EC4BE14240671EBD0781BC0000672C6030BD050A806712BD21
S219EC4BF60508C06712BD07840699BD0784069FBD078406A5BDEF
S219EC4C0B078406AB4A81672CBD0C8406BD067AFAF6BD14824CEA
S219EC4C2042A76072BD07EE56BD057C08BD097C08BD097C08BD34
S219EC4C35077C08BD267C28BD047C61005312BD068462610061F9
S219EC4C4A44BD0C72BD06F672600001E2BD0B846ABD057C06C0BD
S219EC4C5F6606487AFC7560C0BD0616FDBD0586340CFC660000D0
S219EC4C74FE246C000447FAFAAE486A00024E93588F3800486A59
S219EC4C890004BD040A360054AC001C028200000200BD0684181F
S219EC4C9E47FAFA0A4BF900ECCB94BD05CC0E2CBD05CC0E2E2F7B
S219EC4CB30C4E96508F428234BD05A4182F330C00BD0A8222BD20
S219EC4CC80781203A52AC001002BD05AE4A7007C083BD0624BDDC
S219EC4CDD0E8230E9C205C3BD0F18BD0536E9C3BD1118BD05303E
S219EC4CF24FEF001C42974878000E22020281000080BD05C414FA
S219EC4D07BD0B8448BD053EBD05D84E0EBD06B97A80BD05DE36D0
S219EC4D1CBD07CD5228600003FABD06820EF9BD05822400C0674E
S219EC4D310000BEBD06830E6600016EBD0885226100F992380005
S219EC4D4652ACBD059C12EC5DC82F0C47BD06815C93E9C2354211
S219EC4D5B508F7201B283660ABD0774626016BD040A7402B483D3
S219EC4D70660610BC00776006760410BC006CBD10870ABD0882D1
S219EC4D852E45FAF8B82F32BD05815E93BD0E820E25C3BD0786E9
S219EC4D9A04BD0D18BD05837A03BD07E546052F0C61005CDE4F52
S219EC4DAFEF00246000032CBD0A8132F8E0588FBD068134200487
S219EC4DC402BD058472BD0683406706487AFA8B6004BD0406BD0D
S219EC4DD9068336E9C33542660C7601BD09814018BD040ABD05DD
S219EC4DEE8154087602BD1C8142BD13810A54BD0F832014BD06D9
S219EC4E03764A446C0AE9C4044341FAF7946008BD070AC2BD07B9
S219EC4E188634966000016CBD07852CBD05A912060067000160B7
S219EC4E2D6E24BD058B34BD040C5C6E0A4A806700016C600001CC
S219EC4E4276BD041604BD04166660000168BD058546BD040E4077
S219EC4E576E0EBD058B5ABD040C3C6000014EBD040E0E00660037
S219EC4E6C0144487AF9A5BD0B8732C23602508F66BD08814A62E9
S219EC4E8152AC0010760160BD0588507401B483660CBD088A3807
S219EC4E967602600ABD0881787604BD0C817ABD0A8268F778BD5B
S219EC4EAB08826842823400BD06814608006750BD060A70004A47
S219EC4EC0446C0A720CE2A041FAF69A6008740CE4BD040AC8BD4B
S219EC4ED508882EBD068926BD1A835A5B04BD06B1520152BD12AC
S219EC4EEA1C5AE8BD10826CBD137426BD097454BD0A7460000115
S219EC4EFF02BD058852E0BD078D7CE5BD07887AEABD07887AEF18
S219EC4F14BD07887AF4BD07887AF84A81670000CEBD06887CBD9B
S219EC4F29098B122EBD06871C3602BD05C01E83672C6D064A831A
S219EC4F3E670A60787202B283673A6070BD0C8262BD0C823E765E
S219EC4F530160BD088428BD118D2076026038BD0710BD14847062
S219EC4F6804BD05846650BD0F823602BD041A601A2F03BD051E56
S219EC4F7D32BD1E825459B0BD068183387C1CBD06AA6A206F0045
S219EC4F920C361042803003BD0790462C6E0E723CB280672472B3
S219EC4FA77CB280671E603CBD07904614BD0990460A6028BD0696
S219EC4FBC904666207040C083BD059004DE6706487800026004D9
S219EC4FD1BD06E12E24BD05CF54020442813203BD07CD3CF04202
S219EC4FE682BD068B0A670001ECBD0614F1387401BD07AF32007D
S219EC4FFB01D8BD0714BD088D281CBD098D2812BD0670018067C1
S219EC501008BD068D286618BD06E226BD078156086100591C2434
S219EC50250060000128BD0F8C7030BD098C7026BD06CC100880F5
S219EC503A671CBD078C7014BD0B811CBD088C241EBD07819C56EA
S219EC504FBD0B5A58C22400BD0416BD055EBD052EFDFF7402BDE5
S219EC5064068C3E670001BD07AB52BD098A4218BD078A401EE90E
S219EC5079C13542BD0584187AB48367766072BD0410675EBD05E3
S219EC508EE564626064BD08CF50BD078770746E1EBD07876E6AEB
S219EC50A36E084ABD05DE4C00C6BD07876A58600000BABD078723
S219EC50B8684CBD06D3540A00BD05D36AA4BD088764009AE9C1B3
S219EC50CD360266047601600CBD047466047602600276BD058324
S219EC50E20CBD0B837E08610057F424005282BD05865666E9C397
S219EC50F73602BD06E674BD07853A2E7002B0BD040826760160C5
S219EC510C227602BD05E514BD05845CBD0D42B2BD058210046030
S219EC512118BD135E9624002F0361005A3AD480BD05C36A0242DA
S219EC5136822002BD06AD0E6D6F7665710923006D7673006D76C4
S219EC514B7A006D6F7633BD04102D31BD05957A00BD05D2486F14
S219EC51600018202F001C38004283E9C0040453807209B2806533
S219EC5175000172303B0ABD06B50E140020001A0168016801683D
S219EC518A0026BD05080676016000015076026000014A76046004
S219EC519F000144428234BD0781826C01006640487AFF84BD06EB
S219EC51B481AA26B4164E92BD058E10072F022F0B610060C02087
S219EC51C96BBD07862CABBD058F000341FAF22ABD05882A0BBD6D
S219EC51DE06A7126000019810040200FF80BD06406606487AFF4E
S219EC51F33E6004487AFF3CBD0424508FBD07422EBD044270406C
S219EC5208C084BD0628BD0416BD058A4A62BD04187601BD058A06
S219EC521D4A77BD050C02BD073209BD040E42A7BD0B82420B614B
S219EC5232005612BD0D8112C4050341FAF198BD0B81121C60004A
S219EC52470106487AFEC2BD0B8152803004508FE8C00503660C88
S219EC525C487AFEB0BD0681186014BD059A3078000BBD05CB6C04
S219EC5271005FD4BD05A31EBD0B5EBD05820ABD0A835C0B6100FB
S219EC52865594BD07BC42A4487AFE6BBD041249A8E9C405C3BDB2
S219EC529B058F6480660CBD073E61BD043EBD0D817801B0836664
S219EC52B00ABD0712626014BD040A7202B2BD089002BD068E3E6B
S219EC52C5BD0A34BD05817A242B001CBD0E817E45F900ECBFF01D
S219EC52DA4E92BD0C8124202B001C90822F00BD0528FEBD0581AD
S219EC52EF4EBD06820828BD06D53648E73030266F0014428332F9
S219EC530413E9C1040453807409B4806568BD0B84301CBD05B87B
S219EC5319596000600020BD050644760160487602604476046034
S219EC532E40BD05D64CFFBD06870E010042824A80675AE9C106FE
S219EC534341448042A7720192802F016006BD12822854AE2400BC
S219EC5358BD05822A2EBD128142C0324E922400BD108132BD05E9
S219EC536D8610282002BD06818E307274730068616C7400707571
S219EC53826C73650062676E6400696C6C6567616C006E6F70001F
S219EC539772657365740072746409007274650072747200737410
S219EC53AC6F700900747261707600736174732E6C0900626B704B
S219EC53C174092300657874BD059D337874BD041565787462BD31
S219EC53D604086C696E6BBD0417BD05086CBD069D26BD04087545
S219EC53EB737000737761700900756E6C6BBD06530923006A6D42
S219EC54007009006A7372BD0629096363722CBD060A73722C00A7
S219EC54156E62636409007065610900746173BD072300636C7242
S219EC542A006E6567BD040478006E6F7400747374002E620900C0
S219EC543FBD0477BD058103BD04316368BD058107BD04076C09A5
S219EC5454BD0D8766360041F8BD05E622BD079D424E7267000098
S219EC5469AE6E34BD040C4AFA676A6E14BD050AC8BD06E6684A9A
S219EC547ECC6752600000AEBD052A70676C6E64BD0516FCBD05FE
S219EC5493F214BD05E74E4E766700008A6EBD058B684E746750C5
S219EC54A841FAFE986E7C60BD05920A4E77674C0680FFFFB18652
S219EC54BD7201B2806566601841FAFE7E605E41FAFE7D6058BD61
S219EC54D205065241FAFE7C604C3F0342672F0B610042F86000F6
S219EC54E7036441FAFE70603841FAFE6E6032487AFE6E601041FF
S219EC54FCFAFE6D602641FAFE6B6020487AFE69BD042C4682BD00
S219EC5511059E000B610054B4BD069D6C04A241FAFE534A886746
S219EC55260C2F08BD05226060000316BD0B9916F80C800000493B
S219EC553BC0670000AA6E36BD040C4848676C6EBD058C3E48087B
S219EC55506700009ABD050A40670001706000018ABD050E8067CE
S219EC55655EBD0508C0676EBD08940A4E5867000156BD06822A4D
S219EC557A4C8067BD0594344E50675A60000156BD050C606700C3
S219EC558F00CABD050A68670000C06000013E487AFDBF60184814
S219EC55A47AFDC12F0B610045C6BD0585600260000148487AFD12
S219EC55B9B4BD0514B2BD06C92CBD061802FC487AFDA360E6482F
S219EC55CE7AFDA460E0BD078E62F841BD069E28BD058734BD06C6
S219EC55E376660E487AFD8A2F0BBD05A32A01600C487AFD84BD59
S219EC55F8070E02BD06FD50BD068226BD068948BD0D8766BD0B08
S219EC560D54C252BD074EBD0A905004BD0446600001D6487AFD75
S219EC56223ABD0A89787408C483508F6622BD07812ABD075E6164
S219EC56370050CEBD0C5C4FEF0014487AFD0ABD068A164A826779
S219EC564C000306BD0E8A06BD0A3E600002E0487AFCE26000FEAF
S219EC5661FA487AFCE0BD044E44A6BD08226000FEF0BD10A142CD
S219EC56764E406620487AFCBCBD052A7CBD052803BD068C5C5A46
S219EC568BC8BD0781B076984284BD0C9D0A48406700008E6EBD70
S219EC56A0059D7E44C0BD050CBD059E0240C0676ABD040842C014
S219EC56B5675C607EBD040A46C06770BD0532006756606CBD0567
S219EC56CA8362406726BD062E4AC067BD0585584C0067146050B0
S219EC56DFBD05810A8067BD0590444EC06710603EBD0885463B0D
S219EC56F4A86000009E41FAFC21602A41FAFC20602441FAFC1FF7
S219EC5709601E41FAFC23601841FAFC266012BD05060C41FAFC70
S219EC571E25600641FAFC2478024A88674C2F08BD0C8E342FBDF2
S219EC57330D8A004F6CBD0892684FEF00BD05925046BD059E6077
S219EC5748ECE860BD05990644C0660001A0487AECDC2F0B4E9217
S219EC575D601CBD0A926AFB80BD06854A660E2F01BD044A3E64A9
S219EC5772BD05971074BD0C92104400672CBD0782140067BD058F
S219EC5787937A42006714602EBD056800BD0693404A00671A60D9
S219EC579C1C41FAFB7C601641FAFB7A601041FAFB78600A41FA50
S219EC57B1FB77600441FAFB754A886750BD0C8144E9C306025056
S219EC57C68F660841FAFB5D74016014BD058D52BD040E5374022B
S219EC57DB600641FAFB4F7404BD0430BD05816E02BD0C816E4EBB
S219EC57F07EBD07D47CCEBD0A8148BD06952641C06644487AFBDD
S219EC580519BD0588307EBD108C28BD148D50BD0B846EBD088D51
S219EC581A4A3060BD07817EF1BD05E12A41006664E9C105C2BDF4
S219EC582F0C86607203B2806610487AFAB42F0B4E90BD07871879
S219EC58440E487AFAABBD0910BD0B78BD128660BD09874E0B2F49
S219EC58590B61004DAE4FEF0014BD0E8E403613BD0898024E728F
S219EC586E6768BD06851E4AFA676EBD07846EC867BD068A6ECC7A
S219EC5883675C6060BD078A78526DBD068862706D4E6046BD06D6
S219EC58988A646E1ABD0508756CBD0589524E7367BD0583344E5D
S219EC58AD746716602ABD0B8A7E1E2F0B61003FDC6008487800AE
S219EC58C2026100500CBD07982ECE4282600002C8BD08880EBDC3
S219EC58D7098A22D86E3CBD06983C4848670002A86EBD05F30039
S219EC58EC4808675ABD098650B6600000C8BD078A240000A8BD54
S219EC5901078A2600009E600000B0BD088A280086BD063A4CBD38
S219EC5916042484BD078A2A166000008EBD078A2ABD0581644EF6
S219EC592B68675C607ABD08810445BD05995C41BD058F58BD077D
S219EC594089181ABD089824BD09895090BD05961202BD05961220
S219EC5955BD0E896ABD061A04BD07900018600001EABD09884E5A
S219EC596A06BD0A8A642F0B61004C5ABD059942C6BD129A324EEF
S219EC597F40670001BD07EC48BD0B8844F2BD068E2A44C0676AAC
S219EC5994BD06815840C0670000DCBD0788440000D260BD058327
S219EC59A92046C0674ABD0788460000BE6042BD0788482CBD07AB
S219EC59BE8E5EBD042ABD0582304C00671860BD068C40806700F7
S219EC59D30094BD07884C00008A600EBD07815204601E740260BB
S219EC59E878BD13874E1CBD0F9A380B61004B8A24005282600049
S219EC59FD00F4BD0F875C24BD09875CBD05842E4200671260BDE8
S219EC5A1205814A4600BD069B604A006624E9C3060274014A80F3
S219EC5A27670A74027201B28067027404BD0C87186000FECCBDBD
S219EC5A3C13870E32BD148704BD069312BD10867ABD0693126031
S219EC5A5158BD08867CBD06826C41006646BD08867EC032BD0515
S219EC5A668678BD0681923602BD1294084E90BD059406104297A0
S219EC5A7BBD0C865E4ABD065A14BD08936C747066BD0592640037
S219EC5A90646200730073756271BD05AF64712E00BD08FD322094
S219EC5AA52F001436BD0792087407C480BD0A857E51F86642703A
S219EC5ABA01B0826C3C7004B0826D36487AFFB22F0A61003E1265
S219EC5ACF508F7002B082660E206ABD079706AA00106056BD06BC
S219EC5AE4819C6C01FEBD0D1666BD06854CF0BD055250F8667E2A
S219EC5AF9BD055278BD055272487AFF64BD05813A0A61004B64D9
S219EC5B0EBD0C38BD05BC56BD04641EBD071677BD0416BD070C81
S219EC5B2309BD040CBD05821624BD07748ABD071A6CBD1326BD69
S219EC5B3805E8404B9ABD058B6A62BD0A8E42BD078112C86666BA
S219EC5B4D487AFEE3BD0881064ADEBD0C3E7007C48041FAE496C4
S219EC5B622F302C00BD041E3D18BD071E2CBD041EBD098472BD18
S219EC5B7705E92EBD06A512E4E6BD07AE500A61004DD252AA0080
S219EC5B8C1CBD07DF6CE8BD0776BD05842C50C06624487AFE708A
S219EC5BA1BD097668BD0C76BD088F7000A2BD07AE3CBD05853C84
S219EC5BB6500067BD05A04E51BD069E72C22602BD068B24BD073E
S219EC5BCB1406487AFE226004BD04062F0A4E90BD05A416826632
S219EC5BE00ABD08823E6014BD040ABD058252BD0AB12062BD1094
S219EC5BF5822EBD070C23BD040CE9C3050366027008BD059E68DE
S219EC5C0ABD05817E4FB2BD0E817EBD0B86720A610047D64FEF82
S219EC5C1F0020BD06FF562F02226F00083051428132087407BDC7
S219EC5C3408F476BD08845667BD05CD60F0F80C81BD0584122E08
S219EC5C49BD05841228BD05841222BD068122BD05835C0C428185
S219EC5C5EBD05835E6E4878000461004A64BD05F32A6042823425
S219EC5C7308BD08834272BD05A34050C8674ABD0F825EBD0781C8
S219EC5C88986C601EBD1082424281BD078230BD0EA344096100AE
S219EC5C9D475822BD059A562001241F4E756272610062737200EB
S219EC5CB26200BD05B9146F000C202F001034BD068628BD054E6C
S219EC5CC760BD058274FFD860BD05A2146100660E487AFFCE2F7D
S219EC5CDC0A61003AF2508F6012487AFFC4BD0883604888BD051B
S219EC5CF1C16EBD0B8560428112026620BD0A8438E2AE588F3248
S219EC5D060048C152AA001CBD0983343C0C81000000FF661EBDF0
S219EC5D1B0B2896588F220054BD0A266C6016BD07D04806068124
S219EC5D30FFFFFF00BD0718BD12835C41D1EA00084868BD0685EA
S219EC5D451C4C0C50BD0781ED48BD05BB4CBD05BB3470014A8164
S219EC5D5A670C7002BD06766702BD06CF1C616464782E00737557
S219EC5D6F6278BD05883ABD040A0048E73C2024BD099A48BD06EB
S219EC5D84883CE9C0260242854A82660678627401602C7201B285
S219EC5D99BD040C77740260207202BD050C6C740460147ABD07F2
S219EC5DAE9D6E6606740278776004740478BD079350F1BD058FD6
S219EC5DC378D1BD078B089100665A4A85665643BD098566D1BDDC
S219EC5DD806827270BD05A200702F0A4E91508FBD05816284BDAA
S219EC5DED10816C428132037008C081670C2F012F0A610050066F
S219EC5E02600000F4BD070C8EBD05870EBD06891600BD0A5ED03A
S219EC5E17BD065E1EBD055E1CBD065E4A8567BD08833661BD0B0C
S219EC5E2C64BD058342BD1A7ABD089F50673A4A856636E9C105C5
S219EC5E410341FAE052BD05A2460A610038D4BD0E8646BD0B93D8
S219EC5E566E0A61004490BD05936E48BD111878BD0C364FEF00F3
S219EC5E6B14BD06813A4A85670ABD06B606DFB86008BD070AE62D
S219EC5E80BD066C4E91508F4CDF04BD0B81A13C341142803002A1
S219EC5E95E9C0160241F800006604720160227601B68166047224
S219EC5EAA0260187602B6816710307C00BD07814072024A80677C
S219EC5EBF0272BD07A54CBD11831E06BD05F544BD078662010097
S219EC5ED442A72F01BD0C865044084FEF0014BD06A67E62666360
S219EC5EE96867006266636C7200626665787473BD0607750062AE
S219EC5EFE6666666F006266696EBD04137365740062667473741B
S219EC5F13BD059F2ABD08846238BD08BC6ABD05875EEBC0675620
S219EC5F28BD06A930E9C06754BD06AA62E8C0676A606EBD040A92
S219EC5F3DEAC0672860BD05924AEDC0673EBD061EECC0671CBD08
S219EC5F52069926EEC0673ABD0408EFC0672A603E223C00EC7CC8
