:020000040000FA
:10000000640083128B018316843081008312850182
:10001000303086008316073085000030860083125A
:100020008D018E018F019001910192019301940144
:100030009501960197019C01A2209C182A28AA30BC
:100040001902031D2A28A2209C182A280030190210
:10005000031D2A28FF30C6201C182A28A2209C181D
:100060002A28FA301902031D2A28A2209C182A28BF
:10007000AA301902031D2A28A2209C182A28003021
:100080001902031D2A28F430C6201C182A28A22091
:100090009C182A28FA301902031D2A28F330C6209A
:1000A0001C182A28A2209C182A28FA301902031D9D
:1000B0002A282830C6201C182A28A2209C182A2862
:1000C000FA301902031D2A28A2209C182A28190890
:1000D0008D00A2209C182A2819088E00A2209C18A6
:1000E0002A2819088F008C010D1A8C030E0892071C
:1000F0000318930A0C0893078C018D1A8C030F08C0
:1001000094070318950A0C0895070D1C89281C16DE
:100110008A281C128D1C8E288612642886160D1DB6
:1001200097281C199A2808309C061C159A281C1D13
:100130009A281C119C19A0281C1AA02806166428AD
:1001400006126428851CAD2811218101851CAD286B
:100150000D300102031DA628A228FB20FE20083036
:1001600098009B01FB200310851CB8289B0A0314F0
:10017000990CFE20980BB228FB2085189B0A9C1036
:100180001B1C9C14FE20FB20FE20080099008C0004
:10019000083098009B018C0C0130031C03019B0765
:1001A000980BCB289B0908309800012121308C0046
:1001B0008C0BD8280921000000000000000000007E
:1001C0000521FB20990C031CE7280D21E8280921B3
:1001D000FE20980BE128FB201B1CF0280D21F128A4
:1001E0000921FE20FB200D21FE20FB201C1085187C
:1001F0001C14FE2008000519FB280800051DFE2818
:100200000800831605118312080083160515831252
:100210000800831685108312080083168514831244
:1002200008001208130403192D29931B2229960A8A
:100230000430160203199601FF3092070318930A3F
:1002400093072D299603FF301602031D2929033039
:100250009600013092070318930A14081504031935
:100260004929951B3E29970A043017020319970163
:10027000FF3094070318950A950749299703FF3023
:100280001702031D45290330970001309407031816
:10029000950A0518542916088A1400228C0017089C
:1002A00005228A018C045C2916088A140A228C0013
:1002B00017080F228A018C040608F0390C04860006
:0202C000080034
:100400008207003401340334023482070034043498
:100410000C3408348207003401340934083482076C
:080420000034043406340234F8
:02400E00F13F80
:00000001FF
