:020000040000FA
:10000000A0018A150A1200280B1F1128FD00030EFB
:100010008301FC008C10FB0A7C0E8300FD0E7D0E1C
:1000200009008A15A2218A11D12A82074534693430
:100030006634663465346C34203431342E343134D3
:10004000303469342034313431342F343234303464
:100050003034343400348B174B080339031D3428F3
:1000600083168614831237288316861583124B084D
:100070000339031D442886184D288B1383168611D7
:1000800083128611DD27792B86194D288B13831651
:10009000861083128610EC27E22BF91E6B280C1EAB
:1000A0006B288316861086118312861086113808F5
:1000B0003902031D5D28F9122B288317380A8400A2
:1000C00050300402031884010408B80090308407FB
:1000D000000899002B288C1E822883168610861112
:1000E000831286108611981C7828181218162B284F
:1000F000181D7C281A082B281A08F300FA1FF1286B
:1001000060272B287B084B0203193728831686109B
:1001100086118312861086118B13C8307B02031C54
:10012000A228FB00CB008B178A15B023D826912775
:100130008A110130A900791FA6287913D523F03040
:100140009227A9287B08CB008B17A928F91FA9287B
:10015000C8278A1591228A114B182B283E1FB328D5
:100160008A15E3248A11781F2B28F919DA287919BE
:10017000C128F91C2B28CE0BC1280A30CE00CF0A8B
:1001800025250509F400740C1F39F4002602031913
:10019000CD287408A600FE30D62807091F39F400C0
:1001A000270203192B287408A700FF30C000F82786
:1001B000FE24942ACC0B2B284A08CC00F8278A1559
:1001C000F2208A11F401261AF414271A7414740800
:1001D0009227260EF039F40027080F39740492276D
:1001E000942AF817F9117308033C031D0C29F63003
:1001F0009227033092274908922722089227030169
:10020000871A01309227A830F4279227A930F427C3
:1002100092272A0892272B287308043C031D1829CB
:10022000A20184271A3C031C9B2A7308A83E372985
:100230007308063C031D25290730B0278427073C97
:10024000031C9B2A7308903E37297308053C031D45
:1002500054290730B02784277309031936297308F6
:100260008F3C031C9B2A7308003E3729C230F200E2
:100270008427031783168C183B29831272088D007C
:1002800073088C0083168C1303108B1B03148B13C1
:100290000C1555308D00AA308D008C1403188B1767
:1002A0000C11831203132B287308073C031D5B29D1
:1002B0008427A8002B287308083C031D62297910A5
:1002C000F811DE2A7308093C031D72298427E60011
:1002D0008427E7008427E8008427E900E6247910D2
:1002E000F815DE2A73080A3C031D80298427E224BE
:1002F000EE008427E224EF00EC01ED017914DE2A00
:1003000073080B3C03199A2A73080C3C031D8F29B0
:100310008427E224DC008427E224DD00AA29730874
:100320000D3C031D9D29F81D2B28F9192B28F730AA
:10033000C0008613E42586172B2873080E3C031D86
:10034000AF2984278427E2008427E3008427E40080
:100350008427E5008A15272434248A112B28730862
:100360000F3C031DB52978162B287308103C031D7C
:10037000BB2978122B287308113C031DC0292B2898
:100380007308123C031DC629F8122B287308133C6E
:10039000031DCC29F8132B287308143C031DD42902
:1003A000F910791578172B287308153C031DDC29E3
:1003B000F910791178172B287308163C031DF029C2
:1003C000781F2B28F9182B28F9192B280509A600C6
:1003D000260C1F39A60007091F39A700FD30D628B3
:1003E0007308173C031DFB298427E224CA00CC00B4
:1003F000F91578172B287308183C031D002A2B28A1
:100400007308193C031D172A8427D0008427D100C4
:100410008427D2008427D3008427D4008427D500E2
:10042000D601FF30D700F914791178172B287308FB
:100430001A3C031D1D2A78132B2873081B3C031D2F
:10044000302A163084000630F2008427831780009B
:10045000840AF20B252ACB018A1506248A112B283F
:1004600073081C3C031D372AF827F124942A7308CB
:10047000203C031D4F2A8427BB008427BA00842711
:10048000AC003A043B040319472AFA172B2807301B
:10049000B027C627CF2783018A150A1201287308BF
:1004A000213C031D962A8427F400831373188317B5
:1004B0008427F5008400F827F63092272030922711
:1004C000F41B772A0630F2007408213C0319702AC5
:1004D00000089227840A03198317F20B682A942ACA
:1004E0007508F4279227F50AF20B702A942AF41360
:1004F0000330F2000317831274088F0075088D0013
:1005000083168C170C140000000083120C08FE00E8
:100510000E08FF0003137F0892277E089227F50A32
:100520000319F40AF20B7A2AFB272B287308223CC2
:10053000031D9D2A842784272B287308233C031D31
:10054000B32A8427031DAA2A84278A15DB278A1148
:100550003E132B28AC002C09031DB02A3E179B2A02
:10056000BE17FA172B287308803C031DE02A842746
:10057000013C031D2B28F801F901FA01BE01BF015E
:10058000D601B801B9018712F8278A15B4278A1154
:10059000A01FCC2ACF27F917201FD12A0730B02758
:1005A0007917E624C230F427023C0319FA158A159C
:1005B000DB248A113E1779157817F817F8162B28BF
:1005C0007308873C031DEC2AF630922707309227E8
:1005D000280892270530722B7308883C0319F82AE3
:1005E0007308893C0319F82A73088A3C031D122BEF
:1005F000F630922779180C2BF819002B0830702B45
:100600000930922766089227670892276808922780
:10061000690892270230722B0A3092276E089227BF
:100620006F08292B73088B3C031D1E2BF630922775
:100630000B309227013092270130292B73088C3C14
:10064000031D2C2BF63092270C3092275C08922742
:100650005D0892270430722B73088F3C0319342BEA
:100660007308903C031D3A2BF63092270F30781E0A
:100670001030702B7308923C031D442BF6309227E8
:100680000301F81E1230702B7308943C0319502B91
:100690007308953C0319502B7308993C031D672B75
:1006A000F6309227F918582B1430791D1530702B1D
:1006B0001930922750089227510892275208922702
:1006C0005308922754089227550892272B2873081D
:1006D0009A3C031D2B28F63092270301781F1A300D
:1006E0009227063096272B284D27BF272B28C22775
:1006F0002B288316861083128610F61F772B73081B
:10070000AA3C0319D22B7308FC3C0319742B730801
:10071000FE3C0319742BFA1DBE2B7A19A22B730809
:10072000E03C031D9B2B7A143E1F2B288E308A152C
:10073000F5268A112B287308E13C031DBE2BFA1401
:100740007A152B28FA18AC2B7308F03C0319C22B2E
:10075000FA1079127A142B287308F03C0319C22B73
:100760007308773C031DCF2BF919BC2B06134F30B0
:10077000791A8038922706177A11CF2B7308F03C2C
:10078000031DC42B79162B28F919CF2B3E1FCC2B18
:10079000CE308A15F5268A1106138426061779129B
:1007A0007A102B28D52320172B28B927FA1DB72715
:1007B0000230B027C42706170800C8272B28CB27EC
:1007C000C8012B288316861183128611F61FDF2B92
:1007D0004808031DF72B7308AA3C0319DB2C730888
:1007E000FC3C0319DD2B7308FE3C0319DD2BC80A02
:1007F0004808013C0319052C4808023C03190F2C3A
:100800004808033C0319122C182C7308C400C41B9D
:100810000D2C441B0D2CC4192B28C8012B28730840
:10082000C5002B287308C600F81C1A2CC7012B28FA
:100830007308C700C801A3014418A314C4182314E3
:100840002308F838C000C301C101C201441D2B2C8C
:100850009430F427C300C513441AC5174508EA00AD
:10086000F81D552CF701C51BF709DF07770803189A
:10087000770FDE07DE1B542C8A1541248A11660887
:1008800062020319462C031C552C4C2C670863028A
:1008900003194C2C031C552C6708E3006608E20082
:1008A0008A1527248A11552CEC24C613C41AC6179E
:1008B000781A5C2CC609C60A4608EB00F81D832C82
:1008C000F701C61BF709E10777080318770FE00760
:1008D000E01B822C8A154C248A11680864020319D3
:1008E000742C031C832C7A2C6908650203197A2C5A
:1008F000031C832C6908E5006808E4008A15342489
:100900008A11832CE724F81CAB2CC719952C4708B7
:100910000F3903199E2C471C912C9130F427C100EC
:100920009E2C9230F427C1009E2C471C9B2C9030AB
:10093000F427C1009E2C9330F427C100781DAB2C06
:10094000471EA62C9530F427C200AB2CC71EAB2C3B
:100950009630F427C200F81E2B28F9192B2886138D
:10096000E425281CC12C2308240601390319BA2CBC
:100970002318D12C2308240602390319C12CA318EB
:10098000D12CA81CD72C2308240601390319CA2C02
:10099000231CD12C2308240602390319D72CA318B1
:1009A000D72C2308A500A509F730C000E425861739
:1009B0002308A4002B286426F8187426CD27861750
:1009C000A0172B280038031901300800EC24E1019E
:1009D000E001E501E4010800DF01DE01E301E201DD
:1009E0000800FC309227163084000630F20083178E
:1009F00000089227840AF20BF72C08004008FD3CFF
:100A0000031D082D4008922726081F2527081F2DA3
:100A10004008FE3C031D162DF91C122D7430261EB5
:100A2000F430922F4008922726081F2DF91C1C2D08
:100A30007530271EF530922F400892272708F400C2
:100A4000741AF41774127408922F5618362D26084B
:100A5000570601390319362D261C362D5614561209
:100A60004F08D90051080319362D9C27D618472D59
:100A70002608570602390319472DA61C472DD61400
:100A8000D6124F08D90051080319472D9E27561931
:100A9000582D2608570604390319582D261D582DA0
:100AA000561556134F08D80050080319582DA02783
:100AB000D619692D2608570608390319692DA61D70
:100AC000692DD615D6134F08D80050080319692D83
:100AD000A227561C872D261C722D59084F0255023D
:100AE0000318752D56105612872D561A7D2D59084C
:100AF0004F0251020318872D822D5B084F025302CB
:100B00000318872D561456164F08DB009C27D61C59
:100B1000A52DA61C902D59084F0255020318932DA0
:100B2000D610D612A52DD61A9B2D59084F02510268
:100B30000318A52DA02D5B084F0253020318A52D05
:100B4000D614D6164F08DB009E27561DC32D261D32
:100B5000AE2D58084F0254020318B12D56115613EA
:100B6000C32D561BB92D58084F0250020318C32D30
:100B7000BE2D5A084F0252020318C32D56155617A0
:100B80004F08DA00A027D61DE12DA61DCC2D580850
:100B90004F0254020318CF2DD611D613E12DD61BC8
:100BA000D72D58084F0250020318E12DDC2D5A08AA
:100BB0004F0252020318E12DD615D6174F08DA005E
:100BC000A2272608D70008004008F73C0319432E47
:100BD000F819F22D7918F22D400892276A08922709
:100BE0006B089227791C1E2E6A08EC07EC1BFF2D60
:100BF0006E086C020318062EEC00A227F82D6E0872
:100C00006C070318062EEC00A027FF2D6B08ED07DC
:100C1000ED1B142E6F086D0203181E2EED00781EBA
:100C20009E27781A9C270A2E6F086D0703181E2E20
:100C3000ED00781E9C27781A9E27142E281D322E30
:100C40002308240601390319292E7530231CF53099
:100C500092272308240602390319322E7430A31C6C
:100C6000F430922743080319362EA3279730F42730
:100C7000F200410803193F2EA327F20B392E420838
:100C800003190800A32F40089227F4012308250622
:100C9000013903194F2E23187414231CF41423084C
:100CA000250602390319582EA3187415A31CF41530
:100CB0002308A500740892276208922763089227E8
:100CC000640892276508922FC830D1276430D12755
:100CD0005030D127F230E527E627F8107308033C9F
:100CE0000319F8146430D12FC830D127C830D12768
:100CF0005030D127F230E527E62778117308043CFD
:100D0000031978156430D12F73088F3C031C080039
:100D10003E10FA1DAB2E7A189E2E7308113C031D4F
:100D2000962E7A13791E7A173830E12E09308A0010
:100D3000A11B0A16730811218A11A52E0A308A00F8
:100D4000A11B0A16730800228A118A1570238A11C2
:100D500000380319E22E8A1591268A117A1BDF2E9C
:100D60000D308A00A11B0A16730800258A11F200B3
:100D7000F21FF201F21B3E143F1ECD2E0F308A00EF
:100D8000A11B0A16730800278A1100380319CD2EFB
:100D9000F20E721372197217E12EBF1EDF2E0E3083
:100DA0008A00A11B0A16730800268A11003803194D
:100DB000DF2EF20CF20C7213721A7217E12E730806
:100DC000F427F3008A15B8268A11791A0D2F3E1CD4
:100DD0000C2FBE16721FEF2E1D303E1E922772186A
:100DE000F82EAA303E199227B630BE189227022F4D
:100DF0002A303E1D92277308603C0319022F3630BB
:100E0000BE1C9227F218082FB830BE1992270D2F5A
:100E10003830BE1D92270D2F4D2773080319080087
:100E2000F31F1D2FF3137308753C031C0800F630E5
:100E3000922705309227053096277308753C031CCE
:100E400008007308791A8038F0003A3C0319A82783
:100E500070089227791E08003E1C0800BE12721FFF
:100E6000342F9D303E1E922772183D2F2A303E1996
:100E700092273630BE189227432FAA303E1D922764
:100E8000B630BE1C9227F218492F3830BE1992276F
:100E90000800B830BE1D92270800BE1E08003E1A8A
:100EA000572F3E19572FBE18572FBE1D0800BE12D0
:100EB0009D309227AA309227B6309227B830922FD1
:100EC000BE1B7B2F3B18682F8313BA1F772F6B2F06
:100ED0008317BA1B772F3A0860390319772F3A081E
:100EE00084007039703C0319772F73088000BA0AA8
:100EF0000319BB0A7F2F73088A15D4278A11AC0BFC
:100F00000800BE13FA1308008C1E842F981C8B2F28
:100F100018121816842F181D8F2F1A08842F1A08DC
:100F2000F30008008A1588238A110800F2000301E3
:100F30009227F20B972F08004830A32F5030A32F91
:100F40004B30A32F4D30F300922773088038922F37
:100F5000781CAC2F7810AD2F78140230781806303A
:100F6000FA190138F700ED30D6277708D62FF83078
:100F7000D62FF030D6270330FA190230D62F791346
:100F8000FF30D62FFE30E12FF430D62FF530D62F9C
:100F9000F913FF30E52FFE30F02FF430E52FF53058
:100FA000E52FF700F330E5277708E52FE1278A15CD
:100FB000B1258A117208031908008A1557248A116D
:100FC00008008A156C248A110800F0278A15DE258E
:100FD0008A117208031908008A1599248A110800D9
:100FE0008A15AE248A1108008A15F4248A11080093
:0C0FF00006138613080006178617080079
:1010000093280130DB27FF30F5000F30F200FF306E
:10101000FE003F30FF0057307220F301F501F2016E
:1010200072168C1E11281A083F39FF00F3078C1E18
:1010300017281A08FE00F30757307220751D061393
:10104000751D861375190617751986177208F10034
:101050008030DB277108EB257508EB257108F2005D
:10106000F50A031D1128F20AF21E11288C1E3628DB
:101070001A087302031D5D28F601F501F2017216CC
:1010800060207F08F6077E08F607F50A031D402852
:10109000F20AF21E402876087302031D5D28FF3015
:1010A000F5000F30F200FE01FF01573072202030B2
:1010B000D4274F30D4274B30D4278A01830101280D
:1010C0000317831272088F0075088D0083168C1722
:1010D0000C140000000083120C08FE000E08FF0034
:1010E00003130800573C031D0800031783127208FE
:1010F0008F0075088D007E088C007F088E00831697
:101100008C1703108B1B03148B130C1555308D009B
:10111000AA308D008C14000000000C1103188B17EE
:101120008312031308008B018317A0308400800111
:10113000840A841B9728203084008001840A841F3D
:101140009D288313A03084008001840A841BA42876
:10115000213084008001840A841FAA288316031387
:10116000FF30870083128A01A101071E0528FF3086
:10117000F5000F30F2008A1560208A117E087F0486
:0C118000031D0528FF30A1000A160528F9
:10119000F000F3010830F2004D0DF30D7008F3027A
:1011A0000318D428F3070310CD0DF20BCC28F4015B
:1011B0000830F200750DF30DF40D7008F302F7011D
:1011C0000301031C770FF4020318EE287008F307DD
:1011D000F70103010318770FF4070310F50DF20B65
:1011E000DA2808000509A600260C1F39A600070901
:0E11F0001F39A7000800FF3E031DFB28080062
:10120000820700001F341C341F341E341F341E3468
:101210001F341F341E341F341E341F341F341F3438
:101220001F3482070034433400343F343D343B34B0
:101230003C34613400344434423440343E340F345E
:101240005B340034003438342A3400341D34103414
:1012500002340034003400342C341F341E34113472
:101260000334003400342E342D3420341234053449
:1012700004340034003439342F342134143413341A
:1012800006340034003431343034233422341534FD
:101290000734003400340034323424341634083433
:1012A00009340034003433342534173418340B3403
:1012B0000A340034003434343534263427341934B5
:1012C0000C3400340034003428342B341A340D34F8
:1012D000003400343A3436341C341B3400342B349C
:1012E00000340034003460340034003400340034FE
:1012F0000E34003400346D3400346A346734003402
:1013000000340034703471346E346B346C346834AF
:101310000134543462344E346F344A3466346934A0
:101320004C34003400340034003441344934003447
:10133000003400340034003400340034003400340D
:1013400000340034831603130E309F00FF308500F5
:10135000DF308700053086007D3092008312C53073
:101360009F008501860149309200910112151F30BE
:10137000831699008C14181598168312181698174E
:10138000F801F901FA01BE01BF01F220A201C90171
:10139000E601E701E801E9010130DC00DD00EE01D2
:1013A000EF01A301A401A501A8010A30CE00CF01DD
:1013B000C801A901B801B901A01AEF2903179501C5
:1013C0009B0194019A0193019901013092009800C8
:1013D00091009700900196010313B427A016201BDB
:1013E0007917A01BF9178C100B178B170800F20048
:0A13F0001830FB20F20BF82908006A
:1014000082070034003400340034003400340034E7
:10141000003400340034003400340034003400342C
:10142000003490343834003400341D3495340034A2
:101430000034983400340034003400340034003474
:101440005634A034A1340034A334003400340034C2
:101450005734A83400340034AB3400340034003442
:101460005834B0340034B2340034B434003400346E
:101470007334B8340034BA34BB340034003400342C
:101480007434C03400340034003400340034003488
:101490000034C8340034653400340034CD340034B2
:1014A0000034D034003400340034003400340034CC
:1014B00000340034003472340034003400347534A5
:1014C000003400340034003400340034003400347C
:1014D00000340034553400344B3447340034003485
:1014E000003452345334503400344D3448340034D2
:1014F00000340034003446340034493445344F3429
:10150000003400340034003400340034003400343B
:10151000003400340034003400340034003400342B
:1015200000342908FF3E0319D72AFF3E0319BD2ABC
:10153000FF3E031D0800AB30E622F100A830E62292
:10154000F400A930E622BC0074082A02CD0071081C
:101550003C02E82274087002C82075083C02C900E9
:10156000A830F424490203188716A930F42449024C
:10157000031C8712A9011F150800AB010C30CD0018
:10158000AA30E622F0002A02031CCF2AAB0AAB0ADB
:10159000CD0BC02AAB03AB03AB30E622AF2A2B083E
:1015A0000319CC2A4D08013C0319CC2AE42A1E0851
:1015B00022020319BA2A1E08A200CD006430E822D4
:1015C0002209C8207508AA00A90A08002B07F42CD4
:1015D000F300F5010830F2004D08F30C0318F42A6B
:1015E000F20BED2ACD01FD2A0310F92AF30C0318A2
:0C15F000CD07CD0CF50CF20BF62A08001C
:101600008207000007340E340F34113412341334BF
:101610001534163417341E341F342434253426343C
:1016200027342E342F343634373439343A343D3479
:101630003E343F34413445344634473449344A34E7
:101640004C344E344F34523453345434553456346D
:10165000573459345B345E345F34623465346D34EE
:101660006F3476347F34803481348B348C348D34D1
:10167000820700003B345B343C341D342A34603430
:10168000103402343D3403343E341234053404340F
:101690003F3406344034073441343834323408346B
:1016A0000934423433340B340A344334343435345B
:1016B00027340C34443428342B341A340D34623437
:1016C000493436341B3461344C344F345534463449
:1016D0004534543474347334753456345734583470
:1016E000F3000B308A00A11B0A163630F200720894
:1016F000382373020319802BF20B772B03010800A8
:101700000B308A00A11B0A1672080023F3000800A0
:10171000F81F0800F10039080C1E952B3802031D34
:10172000952B71089900F91208000308BD00040800
:10173000BC008317390A8400503004020318840166
:10174000380804020319AB2B0408B9009030840751
:1017500071088000F9163C0884003D0883000800E9
:101760000317950A1508F9239B003C301502031C4A
:10177000F72B95019B01940A1408F9239A003C3039
:101780001402031CF72B94019A01930A1308F923FE
:10179000990018301302031CF72B93019901920A48
:1017A0001208F9239800031309308A00A11B0A16B6
:1017B000031711080F3900211202031CF72B013007
:1017C00092009800910A1108F92397000D30110238
:1017D000031CF72B013091009700900A1008F923A1
:1017E000960064301002031CF72B9001960103133E
:1017F0000800F400F7010A307402031C022CF40004
:10180000F70AFB2B770EF0397404080010308400BF
:1018100083170630F200063084070008F400063013
:10182000840203017418013EF418023E7419043E48
:10183000F419083E741A0A3EF41A143E741B283E2A
:10184000F41B503E8000840AF20B0B2C0800DF01D1
:10185000DE015C08F2006308DF0762080318620F0C
:10186000DE07F20B2B2C0800E101E0015D08F2001D
:101870006508E10764080318640FE007F20B382CD1
:1018800008005F08F5005E08CD005C08C8207508F8
:10189000E3004D08E20008006108F5006008CD0093
:1018A0005D08C8207508E5004D08E4000800F60151
:1018B0009125F3010830F200F30CF3139125F304A2
:1018C000F606F20B5C2C9125F606912500380319DB
:1018D000F601F61FF3010800F400F60183168610E6
:1018E000831286101830FB20831606108312061010
:1018F000792C7A2C0000831686148312B125720885
:10190000031908000830F2007408F6069F25F40C4D
:10191000F20B842C76099F2501309F25F501861C4A
:10192000932CF50B8F2CF5018618982CF50B942C25
:101930000800F601BE25F3010830F200F30CF313A2
:10194000BE25F304F606F20B9E2CBE25F606BE2538
:1019500000380319F601F61FF3010800F400F60140
:1019600083168611831286111830FB208316061108
:1019700083120611BB2CBC2C000083168615831223
:10198000DE257208031908000830F2007408F60614
:10199000CC25F40CF20BC62C7609CC250130CC25D5
:1019A000F501861DD52CF50BD12CF5018619DA2C05
:1019B000F50BD62C0800F425203083178000840A0C
:1019C000F50BDC2C0800C630DB27F4258317000854
:1019D000D427840AF50BE62C0800F4000A307402C0
:1019E0000318073E3A3E0800031783128D00831642
:0C19F0008C130C1483120C080313080065
:101A000082070034003400340034003400340034E1
:101A10000034003400340034003400340034003426
:101A20000034003400340034003400340034003416
:101A30000034003400340034003400340034003406
:101A400000340034003400340034003400340034F6
:101A500000340034003400340034003400340034E6
:101A600000340034003400340034003400340034D6
:101A700000340034003400340034003400340034C6
:101A800000340034003400340034003400340034B6
:101A900000340034003400340034003400340034A6
:101AA0000034003400340034003400340034003496
:101AB0000034003400340034003400340034003486
:101AC0000034003400340034003400340034003476
:101AD0000034003400340034003400340034003466
:101AE0000034003400340034003400340034003456
:101AF0000034003400340034003400340034003446
:101B00000034003400340034003400340034003435
:101B10000034003400340034003400340034003425
:101B200000340301F501861C972DF50B932D061843
:101B30008030F50186189E2DF50B9A2D0800F501D1
:101B4000861CA42DF50BA02D83160139031D061448
:101B5000031906108312F5018618B02DF50BAC2D74
:101B600008001030F200F501CD01861C0800CD0BF5
:101B7000B52DF50BB52DF20BB52D08000301F501C0
:101B8000861DC42DF50BC02D06198030F501861970
:101B9000CB2DF50BC72D0800F501861DD12DF50BBA
:101BA000CD2D83160139031D061503190611831265
:101BB000F5018619DD2DF50BD92D08001030F20046
:101BC000F501CD01861D0800CD0BE22DF50BE22DB0
:101BD000F20BE22D0800F000700E0F39ED24D4272F
:101BE00070080F39ED24D42F203084000830F50020
:021BF0000800EB
:101C000082070034003400340034003400340034DF
:101C10000034003400340034003400340034003424
:101C20000034003400340034003400340034003414
:101C30000034003400340034003400340034003404
:101C400000340034003400340034003400340034F4
:101C500000340034003400340034003400340034E4
:101C600000340034003400340034003400340034D4
:101C700000340034003400340034003400340034C4
:101C800000340034003400340034003400340034B4
:101C900000340034003400340034003400340034A4
:101CA0000034003400340034003400340034003494
:101CB0000034003400340034003400340034003484
:101CC0000034003400340034003400340034003474
:101CD0000034003400340034003400340034003464
:101CE0000034003400340034003400340034003454
:101CF0000034003400340034003400340034003444
:101D00000034003400340034003400340034003433
:101D10000034003400340034003400340034003423
:101D200000347308593C0319992E7308123C031DA3
:101D30009F2EFA12791A0800FA16BF1608007308C7
:101D4000193C031DA72E7A13791E7A170800730811
:101D5000393C031DB12E7A12791A08007A163F1603
:101D60000800791A08007A1E3F12FA1EBF120800F6
:101D700073081D3C031DC02E3E12791E3E1608003E
:101D80007308363C031DC82EBE10791EBE14080011
:101D900073082A3C031DD02E3E11791E3E15080003
:101DA0007308383C031D0800BE11791EBE150800DB
:101DB0003E1F08008030DB27173084000430F50018
:101DC000F2262F30ED2EF2267508023C2030031D3E
:101DD000ED2E03171B1CED2E3A300313D427840A73
:101DE000F50BE32E83170008EB2D791AFA2EDB276B
:0C1DF0007308EB2D8E30AF27CE30AF2FE4
:101E000082070034003400340034003400340034DD
:101E10000034003400340034003400340034003422
:101E20000034003400340034003400340034003412
:101E30000034003400340034003400340034003402
:101E400000340034003400340034003400340034F2
:101E500000340034003400340034003400340034E2
:101E600000340034003400340034003400340034D2
:101E700000340034003400340034003400340034C2
:101E800000340034003400340034003400340034B2
:101E900000340034003400340034003400340034A2
:101EA0000034003400340034003400340034003492
:101EB0000034003400340034003400340034003482
:101EC0000034003400340034003400340034003472
:101ED0000034003400340034003400340034003462
:101EE0000034003400340034003400340034003452
:101EF0000034003400340034003400340034003442
:101F00000034003400340034003400340034003431
:101F10000034003400340034003400340034003421
:101F200000343E1F0800C030DB274908F100303084
:101F3000F0000A307102031CA02FF100F00A992F63
:101F40007008D42730307107D427DF30D4274330CE
:101F5000D4272030D4272D30871A2B30D42FDB27DD
:101F60002030D4272030D42FC830F721031003307D
:101F7000E1273230F721061606122730FB2006161D
:101F800006122730FB2003100230E1272730FB2008
:101F90002830DB270830DB270130DB273230F72100
:101FA0000630DB270C30DB2FF400740E0314E1271E
:101FB00074080314E12FF400740E0310E127740871
:101FC0000310F700F70E0630F20086168612F20BA9
:101FD000E52F0616861686120612031806168616B2
:101FE00086120430F200F70D061203180616861644
:0C1FF0008612F20BF32F061606120800F2
:021FFE00FF3FA3
:02400E00313F40
:1042000000000000000000000000000000003B0073
:10421000010000000000000000000F005B003C00F7
:1042200000001D002A0060003A00100002003D005E
:10423000000038002C001F001E00110003003E008B
:1042400000002E002D0020001200050004003F0099
:10425000000039002F002100140013000600400068
:10426000000031003000230022001500070041004B
:104270000000380032002400160008000900420047
:10428000000033002500170018000B000A0043004F
:104290000000340035002600270019000C004400FF
:1042A0000000000028002B001A000D0062004900E9
:1042B0001D0036001C001B002B00000061004C009C
:1042C00050004B004F004800530055000E005200B4
:1042D00000006D004D006A00670046004700450081
:1042E000700071006E006B006C0068005400650087
:1042F000000072006F0000004E006900660074004C
:1043000073007500000000004A000000000000007B
:104310000000000000005600570058000000000098
:1043200059005A005C005D0037005E005F0003002A
:10433000450069006600660065006C0020003300DF
:1043400020004C00430044002000200020002000FA
:10435000280023001B004000210039002700340002
:104360002F002F00380029004400240052001E00B6
:10437000640019007800140096000F00B4000B00D0
:06438000DC000600030052
:00000001FF
